{
  "contractName": "DidRegistry",
  "abi": [
    {
      "payable": true,
      "stateMutability": "payable",
      "type": "fallback"
    },
    {
      "anonymous": false,
      "inputs": [
        {
          "indexed": false,
          "name": "namespace",
          "type": "string"
        },
        {
          "indexed": false,
          "name": "identifier",
          "type": "string"
        },
        {
          "indexed": true,
          "name": "newAddress",
          "type": "address"
        }
      ],
      "name": "RegisterName",
      "type": "event"
    },
    {
      "anonymous": false,
      "inputs": [
        {
          "indexed": false,
          "name": "namespace",
          "type": "string"
        },
        {
          "indexed": false,
          "name": "identifier",
          "type": "string"
        },
        {
          "indexed": true,
          "name": "oldAddress",
          "type": "address"
        },
        {
          "indexed": true,
          "name": "newAddress",
          "type": "address"
        }
      ],
      "name": "TransferName",
      "type": "event"
    },
    {
      "anonymous": false,
      "inputs": [
        {
          "indexed": true,
          "name": "identity",
          "type": "address"
        },
        {
          "indexed": true,
          "name": "newAccessor",
          "type": "address"
        }
      ],
      "name": "AddAccessor",
      "type": "event"
    },
    {
      "anonymous": false,
      "inputs": [
        {
          "indexed": true,
          "name": "identity",
          "type": "address"
        },
        {
          "indexed": true,
          "name": "oldAccessor",
          "type": "address"
        }
      ],
      "name": "RemoveAccessor",
      "type": "event"
    },
    {
      "constant": false,
      "inputs": [
        {
          "name": "_namespace",
          "type": "string"
        },
        {
          "name": "_identifier",
          "type": "string"
        },
        {
          "name": "_address",
          "type": "address"
        }
      ],
      "name": "registerName",
      "outputs": [],
      "payable": false,
      "stateMutability": "nonpayable",
      "type": "function"
    },
    {
      "constant": false,
      "inputs": [
        {
          "name": "_namespace",
          "type": "string"
        },
        {
          "name": "_identifier",
          "type": "string"
        },
        {
          "name": "_newAddress",
          "type": "address"
        }
      ],
      "name": "transferName",
      "outputs": [],
      "payable": false,
      "stateMutability": "nonpayable",
      "type": "function"
    },
    {
      "constant": false,
      "inputs": [
        {
          "name": "_namespace",
          "type": "string"
        },
        {
          "name": "_identifier",
          "type": "string"
        },
        {
          "name": "_newAddress",
          "type": "address"
        },
        {
          "name": "_nonce",
          "type": "uint256"
        },
        {
          "name": "_signature",
          "type": "bytes"
        }
      ],
      "name": "transferNamePreAuth",
      "outputs": [],
      "payable": false,
      "stateMutability": "nonpayable",
      "type": "function"
    },
    {
      "constant": true,
      "inputs": [
        {
          "name": "_namespace",
          "type": "string"
        },
        {
          "name": "_identifier",
          "type": "string"
        },
        {
          "name": "_newAddress",
          "type": "address"
        },
        {
          "name": "_nonce",
          "type": "uint256"
        }
      ],
      "name": "createTransferNamePreAuth",
      "outputs": [
        {
          "name": "",
          "type": "bytes32"
        }
      ],
      "payable": false,
      "stateMutability": "pure",
      "type": "function"
    },
    {
      "constant": true,
      "inputs": [
        {
          "name": "_namespace",
          "type": "string"
        },
        {
          "name": "_identifier",
          "type": "string"
        }
      ],
      "name": "resolveName",
      "outputs": [
        {
          "name": "",
          "type": "address"
        }
      ],
      "payable": false,
      "stateMutability": "view",
      "type": "function"
    },
    {
      "constant": true,
      "inputs": [
        {
          "name": "_identity",
          "type": "address"
        }
      ],
      "name": "getAccessors",
      "outputs": [
        {
          "name": "",
          "type": "address[]"
        }
      ],
      "payable": false,
      "stateMutability": "view",
      "type": "function"
    },
    {
      "constant": false,
      "inputs": [
        {
          "name": "_identity",
          "type": "address"
        },
        {
          "name": "_newAccessor",
          "type": "address"
        }
      ],
      "name": "addAccessor",
      "outputs": [],
      "payable": false,
      "stateMutability": "nonpayable",
      "type": "function"
    },
    {
      "constant": false,
      "inputs": [
        {
          "name": "_identity",
          "type": "address"
        },
        {
          "name": "_newAccessor",
          "type": "address"
        },
        {
          "name": "_nonce",
          "type": "uint256"
        },
        {
          "name": "_signature",
          "type": "bytes"
        }
      ],
      "name": "addAccessorPreAuth",
      "outputs": [],
      "payable": false,
      "stateMutability": "nonpayable",
      "type": "function"
    },
    {
      "constant": true,
      "inputs": [
        {
          "name": "_identity",
          "type": "address"
        },
        {
          "name": "_newAccessor",
          "type": "address"
        },
        {
          "name": "_nonce",
          "type": "uint256"
        }
      ],
      "name": "createAddAccessorPreAuth",
      "outputs": [
        {
          "name": "",
          "type": "bytes32"
        }
      ],
      "payable": false,
      "stateMutability": "pure",
      "type": "function"
    },
    {
      "constant": false,
      "inputs": [
        {
          "name": "_identity",
          "type": "address"
        },
        {
          "name": "_oldAccessor",
          "type": "address"
        }
      ],
      "name": "removeAccessor",
      "outputs": [],
      "payable": false,
      "stateMutability": "nonpayable",
      "type": "function"
    },
    {
      "constant": false,
      "inputs": [
        {
          "name": "_identity",
          "type": "address"
        },
        {
          "name": "_oldAccessor",
          "type": "address"
        },
        {
          "name": "_nonce",
          "type": "uint256"
        },
        {
          "name": "_signature",
          "type": "bytes"
        }
      ],
      "name": "removeAccessorPreAuth",
      "outputs": [],
      "payable": false,
      "stateMutability": "nonpayable",
      "type": "function"
    },
    {
      "constant": true,
      "inputs": [
        {
          "name": "_identity",
          "type": "address"
        },
        {
          "name": "_oldAccessor",
          "type": "address"
        },
        {
          "name": "_nonce",
          "type": "uint256"
        }
      ],
      "name": "createRemoveAccessorPreAuth",
      "outputs": [
        {
          "name": "",
          "type": "bytes32"
        }
      ],
      "payable": false,
      "stateMutability": "pure",
      "type": "function"
    },
    {
      "constant": true,
      "inputs": [
        {
          "name": "_identity",
          "type": "address"
        }
      ],
      "name": "isExist",
      "outputs": [
        {
          "name": "",
          "type": "bool"
        }
      ],
      "payable": false,
      "stateMutability": "view",
      "type": "function"
    },
    {
      "constant": true,
      "inputs": [
        {
          "name": "_identity",
          "type": "address"
        },
        {
          "name": "_accessor",
          "type": "address"
        }
      ],
      "name": "validOwner",
      "outputs": [
        {
          "name": "",
          "type": "bool"
        }
      ],
      "payable": false,
      "stateMutability": "view",
      "type": "function"
    }
  ],
  "bytecode": "0x608060405234801561001057600080fd5b50613023806100206000396000f3fe6080604052600436106100dc5760003560e01c8063a222feab1161007f578063bf70fb0611610059578063bf70fb0614610d66578063c25f771814610dd7578063d7b40e9914610e60578063fa3162eb14610ed1576100dc565b8063a222feab14610918578063a4409e8514610b38578063bdd9cffa14610bc7576100dc565b80632c9794a4116100bb5780632c9794a41461044457806342d632661461055657806352bc3ea4146105fc5780637cadbca11461077b576100dc565b806213eb4b1461014a57806317f21f50146101b3578063190ad347146102c5575b6040517f08c379a00000000000000000000000000000000000000000000000000000000081526004018080602001828103825260118152602001807f5765206e6f74206163636570742065746800000000000000000000000000000081525060200191505060405180910390fd5b34801561015657600080fd5b506101996004803603602081101561016d57600080fd5b81019080803573ffffffffffffffffffffffffffffffffffffffff169060200190929190505050610f60565b604051808215151515815260200191505060405180910390f35b3480156101bf57600080fd5b506102c3600480360360808110156101d657600080fd5b81019080803573ffffffffffffffffffffffffffffffffffffffff169060200190929190803573ffffffffffffffffffffffffffffffffffffffff169060200190929190803590602001909291908035906020019064010000000081111561023d57600080fd5b82018360208201111561024f57600080fd5b8035906020019184600183028401116401000000008311171561027157600080fd5b91908080601f016020809104026020016040519081016040528093929190818152602001838380828437600081840152601f19601f820116905080830192505050505050509192919290505050610fb6565b005b3480156102d157600080fd5b50610442600480360360608110156102e857600080fd5b810190808035906020019064010000000081111561030557600080fd5b82018360208201111561031757600080fd5b8035906020019184600183028401116401000000008311171561033957600080fd5b91908080601f016020809104026020016040519081016040528093929190818152602001838380828437600081840152601f19601f8201169050808301925050505050505091929192908035906020019064010000000081111561039c57600080fd5b8201836020820111156103ae57600080fd5b803590602001918460018302840111640100000000831117156103d057600080fd5b91908080601f016020809104026020016040519081016040528093929190818152602001838380828437600081840152601f19601f820116905080830192505050505050509192919290803573ffffffffffffffffffffffffffffffffffffffff16906020019092919050505061116c565b005b34801561045057600080fd5b506105546004803603608081101561046757600080fd5b81019080803573ffffffffffffffffffffffffffffffffffffffff169060200190929190803573ffffffffffffffffffffffffffffffffffffffff16906020019092919080359060200190929190803590602001906401000000008111156104ce57600080fd5b8201836020820111156104e057600080fd5b8035906020019184600183028401116401000000008311171561050257600080fd5b91908080601f016020809104026020016040519081016040528093929190818152602001838380828437600081840152601f19601f82011690508083019250505050505050919291929050505061117d565b005b34801561056257600080fd5b506105a56004803603602081101561057957600080fd5b81019080803573ffffffffffffffffffffffffffffffffffffffff169060200190929190505050611333565b6040518080602001828103825283818151815260200191508051906020019060200280838360005b838110156105e85780820151818401526020810190506105cd565b505050509050019250505060405180910390f35b34801561060857600080fd5b506107796004803603606081101561061f57600080fd5b810190808035906020019064010000000081111561063c57600080fd5b82018360208201111561064e57600080fd5b8035906020019184600183028401116401000000008311171561067057600080fd5b91908080601f016020809104026020016040519081016040528093929190818152602001838380828437600081840152601f19601f820116905080830192505050505050509192919290803590602001906401000000008111156106d357600080fd5b8201836020820111156106e557600080fd5b8035906020019184600183028401116401000000008311171561070757600080fd5b91908080601f016020809104026020016040519081016040528093929190818152602001838380828437600081840152601f19601f820116905080830192505050505050509192919290803573ffffffffffffffffffffffffffffffffffffffff169060200190929190505050611404565b005b34801561078757600080fd5b506109026004803603608081101561079e57600080fd5b81019080803590602001906401000000008111156107bb57600080fd5b8201836020820111156107cd57600080fd5b803590602001918460018302840111640100000000831117156107ef57600080fd5b91908080601f016020809104026020016040519081016040528093929190818152602001838380828437600081840152601f19601f8201169050808301925050505050505091929192908035906020019064010000000081111561085257600080fd5b82018360208201111561086457600080fd5b8035906020019184600183028401116401000000008311171561088657600080fd5b91908080601f016020809104026020016040519081016040528093929190818152602001838380828437600081840152601f19601f820116905080830192505050505050509192919290803573ffffffffffffffffffffffffffffffffffffffff1690602001909291908035906020019092919050505061171a565b6040518082815260200191505060405180910390f35b34801561092457600080fd5b50610b36600480360360a081101561093b57600080fd5b810190808035906020019064010000000081111561095857600080fd5b82018360208201111561096a57600080fd5b8035906020019184600183028401116401000000008311171561098c57600080fd5b91908080601f016020809104026020016040519081016040528093929190818152602001838380828437600081840152601f19601f820116905080830192505050505050509192919290803590602001906401000000008111156109ef57600080fd5b820183602082011115610a0157600080fd5b80359060200191846001830284011164010000000083111715610a2357600080fd5b91908080601f016020809104026020016040519081016040528093929190818152602001838380828437600081840152601f19601f820116905080830192505050505050509192919290803573ffffffffffffffffffffffffffffffffffffffff1690602001909291908035906020019092919080359060200190640100000000811115610ab057600080fd5b820183602082011115610ac257600080fd5b80359060200191846001830284011164010000000083111715610ae457600080fd5b91908080601f016020809104026020016040519081016040528093929190818152602001838380828437600081840152601f19601f82011690508083019250505050505050919291929050505061182a565b005b348015610b4457600080fd5b50610bb160048036036060811015610b5b57600080fd5b81019080803573ffffffffffffffffffffffffffffffffffffffff169060200190929190803573ffffffffffffffffffffffffffffffffffffffff169060200190929190803590602001909291905050506119e3565b6040518082815260200191505060405180910390f35b348015610bd357600080fd5b50610d2460048036036040811015610bea57600080fd5b8101908080359060200190640100000000811115610c0757600080fd5b820183602082011115610c1957600080fd5b80359060200191846001830284011164010000000083111715610c3b57600080fd5b91908080601f016020809104026020016040519081016040528093929190818152602001838380828437600081840152601f19601f82011690508083019250505050505050919291929080359060200190640100000000811115610c9e57600080fd5b820183602082011115610cb057600080fd5b80359060200191846001830284011164010000000083111715610cd257600080fd5b91908080601f016020809104026020016040519081016040528093929190818152602001838380828437600081840152601f19601f820116905080830192505050505050509192919290505050611aab565b604051808273ffffffffffffffffffffffffffffffffffffffff1673ffffffffffffffffffffffffffffffffffffffff16815260200191505060405180910390f35b348015610d7257600080fd5b50610dd560048036036040811015610d8957600080fd5b81019080803573ffffffffffffffffffffffffffffffffffffffff169060200190929190803573ffffffffffffffffffffffffffffffffffffffff169060200190929190505050611bb2565b005b348015610de357600080fd5b50610e4660048036036040811015610dfa57600080fd5b81019080803573ffffffffffffffffffffffffffffffffffffffff169060200190929190803573ffffffffffffffffffffffffffffffffffffffff169060200190929190505050611bc1565b604051808215151515815260200191505060405180910390f35b348015610e6c57600080fd5b50610ecf60048036036040811015610e8357600080fd5b81019080803573ffffffffffffffffffffffffffffffffffffffff169060200190929190803573ffffffffffffffffffffffffffffffffffffffff169060200190929190505050611db3565b005b348015610edd57600080fd5b50610f4a60048036036060811015610ef457600080fd5b81019080803573ffffffffffffffffffffffffffffffffffffffff169060200190929190803573ffffffffffffffffffffffffffffffffffffffff16906020019092919080359060200190929190505050611dc2565b6040518082815260200191505060405180910390f35b6000600360008373ffffffffffffffffffffffffffffffffffffffff1673ffffffffffffffffffffffffffffffffffffffff16815260200190815260200160002060009054906101000a900460ff169050919050565b600015156005826040518082805190602001908083835b60208310610ff05780518252602082019150602081019050602083039250610fcd565b6001836020036101000a038019825116818451168082178552505050505050905001915050908152602001604051809103902060009054906101000a900460ff161515146110a6576040517f08c379a000000000000000000000000000000000000000000000000000000000815260040180806020018281038252601c8152602001807f7472616e73616374696f6e20616c726561647920636f6d706c6574650000000081525060200191505060405180910390fd5b60006110b38585856119e3565b90506110be81611e8a565b905060006110d58383611ee290919063ffffffff16565b90506110e2868287611fe6565b60016005846040518082805190602001908083835b6020831061111a57805182526020820191506020810190506020830392506110f7565b6001836020036101000a038019825116818451168082178552505050505050905001915050908152602001604051809103902060006101000a81548160ff021916908315150217905550505050505050565b611178838333846125dd565b505050565b600015156005826040518082805190602001908083835b602083106111b75780518252602082019150602081019050602083039250611194565b6001836020036101000a038019825116818451168082178552505050505050905001915050908152602001604051809103902060009054906101000a900460ff1615151461126d576040517f08c379a000000000000000000000000000000000000000000000000000000000815260040180806020018281038252601c8152602001807f7472616e73616374696f6e20616c726561647920636f6d706c6574650000000081525060200191505060405180910390fd5b600061127a858585611dc2565b905061128581611e8a565b9050600061129c8383611ee290919063ffffffff16565b90506112a98682876129c1565b60016005846040518082805190602001908083835b602083106112e157805182526020820191506020810190506020830392506112be565b6001836020036101000a038019825116818451168082178552505050505050905001915050908152602001604051809103902060006101000a81548160ff021916908315150217905550505050505050565b6060806000808473ffffffffffffffffffffffffffffffffffffffff1673ffffffffffffffffffffffffffffffffffffffff1681526020019081526020016000208054806020026020016040519081016040528092919081815260200182805480156113f457602002820191906000526020600020905b8160009054906101000a900473ffffffffffffffffffffffffffffffffffffffff1673ffffffffffffffffffffffffffffffffffffffff16815260200190600101908083116113aa575b5050505050905080915050919050565b600083836040516020018083805190602001908083835b6020831061143e578051825260208201915060208101905060208303925061141b565b6001836020036101000a03801982511681845116808217855250505050505090500182805190602001908083835b6020831061148f578051825260208201915060208101905060208303925061146c565b6001836020036101000a03801982511681845116808217855250505050505090500192505050604051602081830303815290604052805190602001209050600073ffffffffffffffffffffffffffffffffffffffff166006600083815260200190815260200160002060009054906101000a900473ffffffffffffffffffffffffffffffffffffffff1673ffffffffffffffffffffffffffffffffffffffff16146115a2576040517f08c379a00000000000000000000000000000000000000000000000000000000081526004018080602001828103825260108152602001807f696420616c72656164792065786973740000000000000000000000000000000081525060200191505060405180910390fd5b816006600083815260200190815260200160002060006101000a81548173ffffffffffffffffffffffffffffffffffffffff021916908373ffffffffffffffffffffffffffffffffffffffff1602179055508173ffffffffffffffffffffffffffffffffffffffff167f5167db83996360a442f6e6dbfdce0bf12fcbf043d7affc9edc598567b0a2cd148585604051808060200180602001838103835285818151815260200191508051906020019080838360005b83811015611672578082015181840152602081019050611657565b50505050905090810190601f16801561169f5780820380516001836020036101000a031916815260200191505b50838103825284818151815260200191508051906020019080838360005b838110156116d85780820151818401526020810190506116bd565b50505050905090810190601f1680156117055780820380516001836020036101000a031916815260200191505b5094505050505060405180910390a250505050565b6000848484846040516020018085805190602001908083835b602083106117565780518252602082019150602081019050602083039250611733565b6001836020036101000a03801982511681845116808217855250505050505090500184805190602001908083835b602083106117a75780518252602082019150602081019050602083039250611784565b6001836020036101000a0380198251168184511680821785525050505050509050018373ffffffffffffffffffffffffffffffffffffffff1673ffffffffffffffffffffffffffffffffffffffff1660601b8152601401828152602001945050505050604051602081830303815290604052805190602001209050949350505050565b600015156005826040518082805190602001908083835b602083106118645780518252602082019150602081019050602083039250611841565b6001836020036101000a038019825116818451168082178552505050505050905001915050908152602001604051809103902060009054906101000a900460ff1615151461191a576040517f08c379a000000000000000000000000000000000000000000000000000000000815260040180806020018281038252601c8152602001807f7472616e73616374696f6e20616c726561647920636f6d706c6574650000000081525060200191505060405180910390fd5b60006119288686868661171a565b905061193381611e8a565b9050600061194a8383611ee290919063ffffffff16565b9050611958878783886125dd565b60016005846040518082805190602001908083835b60208310611990578051825260208201915060208101905060208303925061196d565b6001836020036101000a038019825116818451168082178552505050505050905001915050908152602001604051809103902060006101000a81548160ff02191690831515021790555050505050505050565b600083838360405160200180807f61646400000000000000000000000000000000000000000000000000000000008152506003018473ffffffffffffffffffffffffffffffffffffffff1673ffffffffffffffffffffffffffffffffffffffff1660601b81526014018373ffffffffffffffffffffffffffffffffffffffff1673ffffffffffffffffffffffffffffffffffffffff1660601b815260140182815260200193505050506040516020818303038152906040528051906020012090509392505050565b60008083836040516020018083805190602001908083835b60208310611ae65780518252602082019150602081019050602083039250611ac3565b6001836020036101000a03801982511681845116808217855250505050505090500182805190602001908083835b60208310611b375780518252602082019150602081019050602083039250611b14565b6001836020036101000a038019825116818451168082178552505050505050905001925050506040516020818303038152906040528051906020012090506006600082815260200190815260200160002060009054906101000a900473ffffffffffffffffffffffffffffffffffffffff1691505092915050565b611bbd823383611fe6565b5050565b6000600360008473ffffffffffffffffffffffffffffffffffffffff1673ffffffffffffffffffffffffffffffffffffffff16815260200190815260200160002060009054906101000a900460ff16611c4a578173ffffffffffffffffffffffffffffffffffffffff168373ffffffffffffffffffffffffffffffffffffffff16149050611dad565b43600460008573ffffffffffffffffffffffffffffffffffffffff1673ffffffffffffffffffffffffffffffffffffffff16815260200190815260200160002060009054906101000a900463ffffffff1663ffffffff1610611cf7576040517f08c379a0000000000000000000000000000000000000000000000000000000008152600401808060200182810382526021815260200180612fd76021913960400191505060405180910390fd5b60008383604051602001808373ffffffffffffffffffffffffffffffffffffffff1673ffffffffffffffffffffffffffffffffffffffff1660601b81526014018273ffffffffffffffffffffffffffffffffffffffff1673ffffffffffffffffffffffffffffffffffffffff1660601b8152601401925050506040516020818303038152906040528051906020012090506002600082815260200190815260200160002060009054906101000a900460ff169150505b92915050565b611dbe8233836129c1565b5050565b600083838360405160200180807f72656d6f766500000000000000000000000000000000000000000000000000008152506006018473ffffffffffffffffffffffffffffffffffffffff1673ffffffffffffffffffffffffffffffffffffffff1660601b81526014018373ffffffffffffffffffffffffffffffffffffffff1673ffffffffffffffffffffffffffffffffffffffff1660601b815260140182815260200193505050506040516020818303038152906040528051906020012090509392505050565b60008160405160200180807f19457468657265756d205369676e6564204d6573736167653a0a333200000000815250601c01828152602001915050604051602081830303815290604052805190602001209050919050565b60006041825114611ef65760009050611fe0565b60008060006020850151925060408501519150606085015160001a90507f7fffffffffffffffffffffffffffffff5d576e7357a4501ddfe92f46681b20a08260001c1115611f4a5760009350505050611fe0565b601b8160ff1614158015611f625750601c8160ff1614155b15611f735760009350505050611fe0565b60018682858560405160008152602001604052604051808581526020018460ff1660ff1681526020018381526020018281526020019450505050506020604051602081039080840390855afa158015611fd0573d6000803e3d6000fd5b5050506020604051035193505050505b92915050565b600073ffffffffffffffffffffffffffffffffffffffff168173ffffffffffffffffffffffffffffffffffffffff161415612089576040517f08c379a00000000000000000000000000000000000000000000000000000000081526004018080602001828103825260148152602001807f696e76616c6964206e6577206163636573736f7200000000000000000000000081525060200191505060405180910390fd5b6120938383611bc1565b612105576040517f08c379a00000000000000000000000000000000000000000000000000000000081526004018080602001828103825260168152602001807f726571756972652076616c6964206163636573736f720000000000000000000081525060200191505060405180910390fd5b6000600360008573ffffffffffffffffffffffffffffffffffffffff1673ffffffffffffffffffffffffffffffffffffffff16815260200190815260200160002060009054906101000a900460ff1690508015801561218f57508373ffffffffffffffffffffffffffffffffffffffff168273ffffffffffffffffffffffffffffffffffffffff16145b15612202576040517f08c379a00000000000000000000000000000000000000000000000000000000081526004018080602001828103825260198152602001807f6e6f206e65656420746f20616464206d6173746572206b65790000000000000081525060200191505060405180910390fd5b60008483604051602001808373ffffffffffffffffffffffffffffffffffffffff1673ffffffffffffffffffffffffffffffffffffffff1660601b81526014018273ffffffffffffffffffffffffffffffffffffffff1673ffffffffffffffffffffffffffffffffffffffff1660601b8152601401925050506040516020818303038152906040528051906020012090506002600082815260200190815260200160002060009054906101000a900460ff1615612327576040517f08c379a000000000000000000000000000000000000000000000000000000000815260040180806020018281038252600d8152602001807f616c72656164792061646465640000000000000000000000000000000000000081525060200191505060405180910390fd5b60016002600083815260200190815260200160002060006101000a81548160ff02191690831515021790555060008060008773ffffffffffffffffffffffffffffffffffffffff1673ffffffffffffffffffffffffffffffffffffffff1681526020019081526020016000209050808490806001815401808255809150509060018203906000526020600020016000909192909190916101000a81548173ffffffffffffffffffffffffffffffffffffffff021916908373ffffffffffffffffffffffffffffffffffffffff160217905550508261257b57808690806001815401808255809150509060018203906000526020600020016000909192909190916101000a81548173ffffffffffffffffffffffffffffffffffffffff021916908373ffffffffffffffffffffffffffffffffffffffff1602179055505060008687604051602001808373ffffffffffffffffffffffffffffffffffffffff1673ffffffffffffffffffffffffffffffffffffffff1660601b81526014018273ffffffffffffffffffffffffffffffffffffffff1673ffffffffffffffffffffffffffffffffffffffff1660601b81526014019250505060405160208183030381529060405280519060200120905060016002600083815260200190815260200160002060006101000a81548160ff0219169083151502179055506001600360008973ffffffffffffffffffffffffffffffffffffffff1673ffffffffffffffffffffffffffffffffffffffff16815260200190815260200160002060006101000a81548160ff021916908315150217905550505b8373ffffffffffffffffffffffffffffffffffffffff168673ffffffffffffffffffffffffffffffffffffffff167f60f6dbe352ecd211ec059d9dcf606c532338d5afd2f8508215c520ed39710a0f60405160405180910390a3505050505050565b600084846040516020018083805190602001908083835b6020831061261757805182526020820191506020810190506020830392506125f4565b6001836020036101000a03801982511681845116808217855250505050505090500182805190602001908083835b602083106126685780518252602082019150602081019050602083039250612645565b6001836020036101000a03801982511681845116808217855250505050505090500192505050604051602081830303815290604052805190602001209050600073ffffffffffffffffffffffffffffffffffffffff166006600083815260200190815260200160002060009054906101000a900473ffffffffffffffffffffffffffffffffffffffff1673ffffffffffffffffffffffffffffffffffffffff16141561277c576040517f08c379a00000000000000000000000000000000000000000000000000000000081526004018080602001828103825260108152602001807f6964206d757374206e6f74207a65726f0000000000000000000000000000000081525060200191505060405180910390fd5b60006006600083815260200190815260200160002060009054906101000a900473ffffffffffffffffffffffffffffffffffffffff1690506127be8185611bc1565b612830576040517f08c379a00000000000000000000000000000000000000000000000000000000081526004018080602001828103825260138152602001807f6d7573742062652076616c6964206f776e65720000000000000000000000000081525060200191505060405180910390fd5b826006600084815260200190815260200160002060006101000a81548173ffffffffffffffffffffffffffffffffffffffff021916908373ffffffffffffffffffffffffffffffffffffffff1602179055508273ffffffffffffffffffffffffffffffffffffffff168173ffffffffffffffffffffffffffffffffffffffff167f34e3ebad0e30ba0fff65b0be6cfc88c832819ad2a9e673d4c176fa2d836afbea8888604051808060200180602001838103835285818151815260200191508051906020019080838360005b838110156129175780820151818401526020810190506128fc565b50505050905090810190601f1680156129445780820380516001836020036101000a031916815260200191505b50838103825284818151815260200191508051906020019080838360005b8381101561297d578082015181840152602081019050612962565b50505050905090810190601f1680156129aa5780820380516001836020036101000a031916815260200191505b5094505050505060405180910390a3505050505050565b600073ffffffffffffffffffffffffffffffffffffffff168173ffffffffffffffffffffffffffffffffffffffff161415612a64576040517f08c379a00000000000000000000000000000000000000000000000000000000081526004018080602001828103825260148152602001807f696e76616c6964206f6c64206163636573736f7200000000000000000000000081525060200191505060405180910390fd5b612a6e8383611bc1565b612ae0576040517f08c379a00000000000000000000000000000000000000000000000000000000081526004018080602001828103825260168152602001807f726571756972652076616c6964206163636573736f720000000000000000000081525060200191505060405180910390fd5b6000600360008573ffffffffffffffffffffffffffffffffffffffff1673ffffffffffffffffffffffffffffffffffffffff16815260200190815260200160002060009054906101000a900460ff16905080158015612b6a57508373ffffffffffffffffffffffffffffffffffffffff168273ffffffffffffffffffffffffffffffffffffffff16145b15612bdd576040517f08c379a000000000000000000000000000000000000000000000000000000000815260040180806020018281038252601c8152602001807f6e6f206e65656420746f2072656d6f7665206d6173746572206b65790000000081525060200191505060405180910390fd5b60008483604051602001808373ffffffffffffffffffffffffffffffffffffffff1673ffffffffffffffffffffffffffffffffffffffff1660601b81526014018273ffffffffffffffffffffffffffffffffffffffff1673ffffffffffffffffffffffffffffffffffffffff1660601b8152601401925050506040516020818303038152906040528051906020012090506002600082815260200190815260200160002060009054906101000a900460ff16612d01576040517f08c379a00000000000000000000000000000000000000000000000000000000081526004018080602001828103825260128152602001807f6163636573736f72206e6f742076616c6964000000000000000000000000000081525060200191505060405180910390fd5b60006002600083815260200190815260200160002060006101000a81548160ff02191690831515021790555060008060008773ffffffffffffffffffffffffffffffffffffffff1673ffffffffffffffffffffffffffffffffffffffff16815260200190815260200160002090506000809050600080905060008090505b8380549050811015612e0e57838181548110612d9757fe5b9060005260206000200160009054906101000a900473ffffffffffffffffffffffffffffffffffffffff1673ffffffffffffffffffffffffffffffffffffffff168773ffffffffffffffffffffffffffffffffffffffff161415612e015760019250809150612e0e565b8080600101915050612d7f565b5081612e82576040517f08c379a00000000000000000000000000000000000000000000000000000000081526004018080602001828103825260098152602001807f6e6f7420666f756e64000000000000000000000000000000000000000000000081525060200191505060405180910390fd5b60008190505b6001848054905003811015612f3257836001820181548110612ea657fe5b9060005260206000200160009054906101000a900473ffffffffffffffffffffffffffffffffffffffff16848281548110612edd57fe5b9060005260206000200160006101000a81548173ffffffffffffffffffffffffffffffffffffffff021916908373ffffffffffffffffffffffffffffffffffffffff1602179055508080600101915050612e88565b5082805480612f3d57fe5b6001900381819060005260206000200160006101000a81549073ffffffffffffffffffffffffffffffffffffffff021916905590558573ffffffffffffffffffffffffffffffffffffffff168873ffffffffffffffffffffffffffffffffffffffff167f35ddff9a06c96b258e5b965b1f869facc327bc4ab9c33469dbea94d403efeab160405160405180910390a3505050505050505056fe6163636f756e74206d757374206e6f7420696e20667265657a6520706572696f64a165627a7a723058209d8ff5bc4d8c0bcba0ff50c0675293a27b1cf973097fb54c8e6bc559f06e92560029",
  "source": "pragma solidity >0.4.99 <0.6.0;\r\n\r\nimport \"openzeppelin-solidity/contracts/cryptography/ECDSA.sol\";\r\nimport \"./IDidRegistry.sol\";\r\n\r\ncontract DidRegistry is IDidRegistry {\r\n    using ECDSA for bytes32;\r\n\r\n    mapping(address => address[]) accessors;\r\n    mapping(address => address[]) delegators;\r\n    mapping(bytes32 => bool) accessorMap;\r\n    mapping(address => bool) exists;\r\n    mapping(address => uint32) nextActivated;\r\n\r\n    mapping(bytes => bool) signatures;\r\n\r\n    mapping(bytes32 => address) proxyNames;\r\n\r\n    function () external payable {\r\n        revert(\"We not accept eth\");\r\n    }\r\n\r\n    function registerName(string memory _namespace, string memory _identifier, address _address) public {\r\n        bytes32 hash = keccak256(abi.encodePacked(_namespace, _identifier));\r\n        require(proxyNames[hash] == address(0), \"id already exist\");\r\n        proxyNames[hash] = _address;\r\n        emit RegisterName(_namespace, _identifier, _address);\r\n    }\r\n\r\n    function transferName(string memory _namespace, string memory _identifier, address _newAddress) public {\r\n        _transferName(_namespace, _identifier, msg.sender, _newAddress);\r\n    }\r\n\r\n    function transferNamePreAuth(string memory _namespace, string memory _identifier, address _newAddress, uint256 _nonce, bytes memory _signature) public {\r\n        require(signatures[_signature] == false, \"transaction already complete\");\r\n        // check signature\r\n        bytes32 hashedTx = createTransferNamePreAuth(_namespace, _identifier, _newAddress, _nonce);\r\n        hashedTx = hashedTx.toEthSignedMessageHash();\r\n        address from = hashedTx.recover(_signature);\r\n        _transferName(_namespace, _identifier, from, _newAddress);\r\n        signatures[_signature] = true;\r\n    }\r\n\r\n    function _transferName(string memory _namespace, string memory _identifier, address _from, address _newAddress) internal {\r\n        bytes32 hash = keccak256(abi.encodePacked(_namespace, _identifier));\r\n        require(proxyNames[hash] != address(0), \"id must not zero\");\r\n        address owner = proxyNames[hash];\r\n        require(validOwner(owner, _from), \"must be valid owner\");\r\n        proxyNames[hash] = _newAddress;\r\n        emit TransferName(_namespace, _identifier, owner, _newAddress);\r\n    }\r\n\r\n    function createTransferNamePreAuth(string memory _namespace, string memory _identifier, address _newAddress, uint256 _nonce) public pure returns(bytes32) {\r\n        return keccak256(abi.encodePacked(_namespace, _identifier, _newAddress, _nonce));\r\n    }\r\n\r\n    function resolveName(string memory _namespace, string memory _identifier) public view returns(address) {\r\n        bytes32 hash = keccak256(abi.encodePacked(_namespace, _identifier));\r\n        return proxyNames[hash];\r\n    }\r\n\r\n    function getAccessors(address _identity) public view returns(address[] memory) {\r\n        address[] memory _accessors = accessors[_identity];\r\n        return _accessors;\r\n    }\r\n\r\n    function addAccessor(address _identity, address _newAccessor) public {\r\n        _addAccessor(_identity, msg.sender, _newAccessor);\r\n    }\r\n\r\n    function addAccessorPreAuth(address _identity, address _newAccessor, uint256 _nonce, bytes memory _signature) public {\r\n        require(signatures[_signature] == false, \"transaction already complete\");\r\n        // check signature\r\n        bytes32 hashedTx = createAddAccessorPreAuth(_identity, _newAccessor, _nonce);\r\n        hashedTx = hashedTx.toEthSignedMessageHash();\r\n        address from = hashedTx.recover(_signature);\r\n        _addAccessor(_identity, from, _newAccessor);\r\n        signatures[_signature] = true;\r\n    }\r\n\r\n    function _addAccessor(address _identity, address _from, address _newAccessor) internal {\r\n        require(_newAccessor != address(0), \"invalid new accessor\");\r\n        require(validOwner(_identity, _from), \"require valid accessor\");\r\n        bool _isExist = exists[_identity];\r\n        if(!_isExist && _newAccessor == _identity) {\r\n            revert(\"no need to add master key\");\r\n        }\r\n        bytes32 hash = keccak256(abi.encodePacked(_identity, _newAccessor));\r\n        if(accessorMap[hash]) revert(\"already added\");\r\n        accessorMap[hash] = true;\r\n        address[] storage _accessors = accessors[_identity];\r\n        _accessors.push(_newAccessor);\r\n        if(!_isExist) {\r\n            _accessors.push(_identity);\r\n            bytes32 masterHash = keccak256(abi.encodePacked(_identity, _identity));\r\n            accessorMap[masterHash] = true;\r\n            exists[_identity] = true;\r\n        }\r\n        emit AddAccessor(_identity, _newAccessor);\r\n    }\r\n\r\n    function createAddAccessorPreAuth(address _identity, address _newAccessor, uint256 _nonce) public pure returns(bytes32) {\r\n        return keccak256(abi.encodePacked(\"add\", _identity, _newAccessor, _nonce));\r\n    }\r\n\r\n    function removeAccessor(address _identity, address _oldAccessor) public {\r\n        _removeAccessor(_identity, msg.sender, _oldAccessor);\r\n    }\r\n\r\n    function removeAccessorPreAuth(address _identity, address _oldAccessor, uint256 _nonce, bytes memory _signature) public {\r\n        require(signatures[_signature] == false, \"transaction already complete\");\r\n        // check signature\r\n        bytes32 hashedTx = createRemoveAccessorPreAuth(_identity, _oldAccessor, _nonce);\r\n        hashedTx = hashedTx.toEthSignedMessageHash();\r\n        address from = hashedTx.recover(_signature);\r\n        _removeAccessor(_identity, from, _oldAccessor);\r\n        signatures[_signature] = true;\r\n    }\r\n\r\n    function _removeAccessor(address _identity, address _from, address _oldAccessor) internal {\r\n        require(_oldAccessor != address(0), \"invalid old accessor\");\r\n        require(validOwner(_identity, _from), \"require valid accessor\");\r\n        bool _isExist = exists[_identity];\r\n        if(!_isExist && _oldAccessor == _identity) {\r\n            revert(\"no need to remove master key\");\r\n        }\r\n        bytes32 hash = keccak256(abi.encodePacked(_identity, _oldAccessor));\r\n        if(!accessorMap[hash]) revert(\"accessor not valid\");\r\n        accessorMap[hash] = false;\r\n        address[] storage _accessors = accessors[_identity];\r\n        // delete accessor\r\n        bool found = false;\r\n        uint256 index = 0;\r\n        for(uint256 i = 0; i < _accessors.length; i++) {\r\n            if(_oldAccessor == _accessors[i]) {\r\n                found = true;\r\n                index = i;\r\n                break;\r\n            }\r\n        }\r\n        require(found,\"not found\");\r\n        for(uint256 i = index; i < _accessors.length - 1; i++) {\r\n            _accessors[i] = _accessors[i + 1];\r\n        }\r\n        _accessors.pop();\r\n        emit RemoveAccessor(_identity, _oldAccessor);\r\n    }\r\n\r\n    function createRemoveAccessorPreAuth(address _identity, address _oldAccessor, uint256 _nonce)\r\n public pure returns(bytes32) {\r\n        return keccak256(abi.encodePacked(\"remove\", _identity, _oldAccessor, _nonce));\r\n    }\r\n\r\n    function isExist(address _identity) public view returns(bool) {\r\n        return exists[_identity];\r\n    }\r\n\r\n    function validOwner(address _identity, address _accessor) public view returns(bool) {\r\n        if(!exists[_identity])\r\n            return _identity == _accessor;\r\n        require(nextActivated[_identity] < block.number, \"account must not in freeze period\");\r\n        bytes32 hash = keccak256(abi.encodePacked(_identity, _accessor));\r\n        return accessorMap[hash];\r\n    }\r\n}",
  "sourcePath": "D:/node project/feeless-poc/contracts/DidRegistry.sol",
  "compiler": {
    "name": "solc",
    "version": "0.5.8+commit.23d335f2.Emscripten.clang"
  },
  "schemaVersion": "3.0.10",
  "updatedAt": "2019-07-31T01:50:06.691Z",
  "devdoc": {
    "methods": {}
  },
  "userdoc": {
    "methods": {}
  }
}