{
  "contractName": "ERC865",
  "abi": [
    {
      "constant": false,
      "inputs": [
        {
          "name": "spender",
          "type": "address"
        },
        {
          "name": "value",
          "type": "uint256"
        }
      ],
      "name": "approve",
      "outputs": [
        {
          "name": "",
          "type": "bool"
        }
      ],
      "payable": false,
      "stateMutability": "nonpayable",
      "type": "function"
    },
    {
      "constant": true,
      "inputs": [],
      "name": "totalSupply",
      "outputs": [
        {
          "name": "",
          "type": "uint256"
        }
      ],
      "payable": false,
      "stateMutability": "view",
      "type": "function"
    },
    {
      "constant": false,
      "inputs": [
        {
          "name": "sender",
          "type": "address"
        },
        {
          "name": "recipient",
          "type": "address"
        },
        {
          "name": "amount",
          "type": "uint256"
        }
      ],
      "name": "transferFrom",
      "outputs": [
        {
          "name": "",
          "type": "bool"
        }
      ],
      "payable": false,
      "stateMutability": "nonpayable",
      "type": "function"
    },
    {
      "constant": false,
      "inputs": [
        {
          "name": "spender",
          "type": "address"
        },
        {
          "name": "addedValue",
          "type": "uint256"
        }
      ],
      "name": "increaseAllowance",
      "outputs": [
        {
          "name": "",
          "type": "bool"
        }
      ],
      "payable": false,
      "stateMutability": "nonpayable",
      "type": "function"
    },
    {
      "constant": true,
      "inputs": [
        {
          "name": "account",
          "type": "address"
        }
      ],
      "name": "balanceOf",
      "outputs": [
        {
          "name": "",
          "type": "uint256"
        }
      ],
      "payable": false,
      "stateMutability": "view",
      "type": "function"
    },
    {
      "constant": false,
      "inputs": [
        {
          "name": "spender",
          "type": "address"
        },
        {
          "name": "subtractedValue",
          "type": "uint256"
        }
      ],
      "name": "decreaseAllowance",
      "outputs": [
        {
          "name": "",
          "type": "bool"
        }
      ],
      "payable": false,
      "stateMutability": "nonpayable",
      "type": "function"
    },
    {
      "constant": false,
      "inputs": [
        {
          "name": "recipient",
          "type": "address"
        },
        {
          "name": "amount",
          "type": "uint256"
        }
      ],
      "name": "transfer",
      "outputs": [
        {
          "name": "",
          "type": "bool"
        }
      ],
      "payable": false,
      "stateMutability": "nonpayable",
      "type": "function"
    },
    {
      "constant": true,
      "inputs": [
        {
          "name": "owner",
          "type": "address"
        },
        {
          "name": "spender",
          "type": "address"
        }
      ],
      "name": "allowance",
      "outputs": [
        {
          "name": "",
          "type": "uint256"
        }
      ],
      "payable": false,
      "stateMutability": "view",
      "type": "function"
    },
    {
      "anonymous": false,
      "inputs": [
        {
          "indexed": true,
          "name": "from",
          "type": "address"
        },
        {
          "indexed": true,
          "name": "to",
          "type": "address"
        },
        {
          "indexed": false,
          "name": "value",
          "type": "uint256"
        }
      ],
      "name": "Transfer",
      "type": "event"
    },
    {
      "anonymous": false,
      "inputs": [
        {
          "indexed": true,
          "name": "owner",
          "type": "address"
        },
        {
          "indexed": true,
          "name": "spender",
          "type": "address"
        },
        {
          "indexed": false,
          "name": "value",
          "type": "uint256"
        }
      ],
      "name": "Approval",
      "type": "event"
    },
    {
      "anonymous": false,
      "inputs": [
        {
          "indexed": true,
          "name": "delegate",
          "type": "address"
        },
        {
          "indexed": true,
          "name": "from",
          "type": "address"
        },
        {
          "indexed": true,
          "name": "to",
          "type": "address"
        },
        {
          "indexed": false,
          "name": "value",
          "type": "uint256"
        }
      ],
      "name": "TransferPreSigned",
      "type": "event"
    },
    {
      "constant": false,
      "inputs": [
        {
          "name": "_signature",
          "type": "bytes"
        },
        {
          "name": "_from",
          "type": "address"
        },
        {
          "name": "_to",
          "type": "address"
        },
        {
          "name": "_value",
          "type": "uint256"
        },
        {
          "name": "_fee",
          "type": "uint256"
        },
        {
          "name": "_nonce",
          "type": "uint256"
        }
      ],
      "name": "transferPreSigned",
      "outputs": [
        {
          "name": "",
          "type": "bool"
        }
      ],
      "payable": false,
      "stateMutability": "nonpayable",
      "type": "function"
    },
    {
      "constant": true,
      "inputs": [
        {
          "name": "_to",
          "type": "address"
        },
        {
          "name": "_value",
          "type": "uint256"
        },
        {
          "name": "_fee",
          "type": "uint256"
        },
        {
          "name": "_nonce",
          "type": "uint256"
        }
      ],
      "name": "createTransferHashing",
      "outputs": [
        {
          "name": "",
          "type": "bytes32"
        }
      ],
      "payable": false,
      "stateMutability": "pure",
      "type": "function"
    },
    {
      "constant": true,
      "inputs": [
        {
          "name": "hash",
          "type": "bytes32"
        },
        {
          "name": "signature",
          "type": "bytes"
        }
      ],
      "name": "testRecover",
      "outputs": [
        {
          "name": "",
          "type": "address"
        }
      ],
      "payable": false,
      "stateMutability": "pure",
      "type": "function"
    },
    {
      "constant": true,
      "inputs": [
        {
          "name": "_text",
          "type": "bytes"
        }
      ],
      "name": "testHash",
      "outputs": [
        {
          "name": "",
          "type": "bytes32"
        }
      ],
      "payable": false,
      "stateMutability": "pure",
      "type": "function"
    }
  ],
  "bytecode": "0x608060405234801561001057600080fd5b506117d1806100206000396000f3fe608060405234801561001057600080fd5b50600436106100b45760003560e01c806370a082311161007157806370a08231146103d0578063a457c2d714610428578063a9059cbb1461048e578063dbd381dd146104f4578063dd62ed3e146105f9578063e602908414610671576100b4565b80630868fc24146100b9578063095ea7b31461012f57806318160ddd1461019557806323b872dd146101b35780633950935114610239578063685e99601461029f575b600080fd5b610119600480360360808110156100cf57600080fd5b81019080803573ffffffffffffffffffffffffffffffffffffffff169060200190929190803590602001909291908035906020019092919080359060200190929190505050610740565b6040518082815260200191505060405180910390f35b61017b6004803603604081101561014557600080fd5b81019080803573ffffffffffffffffffffffffffffffffffffffff16906020019092919080359060200190929190505050610758565b604051808215151515815260200191505060405180910390f35b61019d61076f565b6040518082815260200191505060405180910390f35b61021f600480360360608110156101c957600080fd5b81019080803573ffffffffffffffffffffffffffffffffffffffff169060200190929190803573ffffffffffffffffffffffffffffffffffffffff16906020019092919080359060200190929190505050610779565b604051808215151515815260200191505060405180910390f35b6102856004803603604081101561024f57600080fd5b81019080803573ffffffffffffffffffffffffffffffffffffffff1690602001909291908035906020019092919050505061082a565b604051808215151515815260200191505060405180910390f35b6103b6600480360360c08110156102b557600080fd5b81019080803590602001906401000000008111156102d257600080fd5b8201836020820111156102e457600080fd5b8035906020019184600183028401116401000000008311171561030657600080fd5b91908080601f016020809104026020016040519081016040528093929190818152602001838380828437600081840152601f19601f820116905080830192505050505050509192919290803573ffffffffffffffffffffffffffffffffffffffff169060200190929190803573ffffffffffffffffffffffffffffffffffffffff1690602001909291908035906020019092919080359060200190929190803590602001909291905050506108cf565b604051808215151515815260200191505060405180910390f35b610412600480360360208110156103e657600080fd5b81019080803573ffffffffffffffffffffffffffffffffffffffff169060200190929190505050610d4f565b6040518082815260200191505060405180910390f35b6104746004803603604081101561043e57600080fd5b81019080803573ffffffffffffffffffffffffffffffffffffffff16906020019092919080359060200190929190505050610d97565b604051808215151515815260200191505060405180910390f35b6104da600480360360408110156104a457600080fd5b81019080803573ffffffffffffffffffffffffffffffffffffffff16906020019092919080359060200190929190505050610e3c565b604051808215151515815260200191505060405180910390f35b6105b76004803603604081101561050a57600080fd5b81019080803590602001909291908035906020019064010000000081111561053157600080fd5b82018360208201111561054357600080fd5b8035906020019184600183028401116401000000008311171561056557600080fd5b91908080601f016020809104026020016040519081016040528093929190818152602001838380828437600081840152601f19601f820116905080830192505050505050509192919290505050610e53565b604051808273ffffffffffffffffffffffffffffffffffffffff1673ffffffffffffffffffffffffffffffffffffffff16815260200191505060405180910390f35b61065b6004803603604081101561060f57600080fd5b81019080803573ffffffffffffffffffffffffffffffffffffffff169060200190929190803573ffffffffffffffffffffffffffffffffffffffff169060200190929190505050610e70565b6040518082815260200191505060405180910390f35b61072a6004803603602081101561068757600080fd5b81019080803590602001906401000000008111156106a457600080fd5b8201836020820111156106b657600080fd5b803590602001918460018302840111640100000000831117156106d857600080fd5b91908080601f016020809104026020016040519081016040528093929190818152602001838380828437600081840152601f19601f820116905080830192505050505050509192919290505050610ef7565b6040518082815260200191505060405180910390f35b600061074e85858585610f77565b9050949350505050565b6000610765338484610ff6565b6001905092915050565b6000600254905090565b60006107868484846111ed565b61081f843361081a85600160008a73ffffffffffffffffffffffffffffffffffffffff1673ffffffffffffffffffffffffffffffffffffffff16815260200190815260200160002060003373ffffffffffffffffffffffffffffffffffffffff1673ffffffffffffffffffffffffffffffffffffffff1681526020019081526020016000205461148990919063ffffffff16565b610ff6565b600190509392505050565b60006108c533846108c085600160003373ffffffffffffffffffffffffffffffffffffffff1673ffffffffffffffffffffffffffffffffffffffff16815260200190815260200160002060008973ffffffffffffffffffffffffffffffffffffffff1673ffffffffffffffffffffffffffffffffffffffff1681526020019081526020016000205461151290919063ffffffff16565b610ff6565b6001905092915050565b60008073ffffffffffffffffffffffffffffffffffffffff168573ffffffffffffffffffffffffffffffffffffffff161415610956576040517f08c379a000000000000000000000000000000000000000000000000000000000815260040180806020018281038252602181526020018061171a6021913960400191505060405180910390fd5b600015156003886040518082805190602001908083835b60208310610990578051825260208201915060208101905060208303925061096d565b6001836020036101000a038019825116818451168082178552505050505050905001915050908152602001604051809103902060009054906101000a900460ff16151514610a46576040517f08c379a000000000000000000000000000000000000000000000000000000000815260040180806020018281038252601c8152602001807f7472616e73616374696f6e20616c726561647920636f6d706c6574650000000081525060200191505060405180910390fd5b6000610a5486868686610f77565b9050610a5f8161159a565b90506000610a7689836115f290919063ffffffff16565b90508773ffffffffffffffffffffffffffffffffffffffff168173ffffffffffffffffffffffffffffffffffffffff1614610b19576040517f08c379a00000000000000000000000000000000000000000000000000000000081526004018080602001828103825260118152602001807f696e76616c6964207369676e617475726500000000000000000000000000000081525060200191505060405180910390fd5b6000610b2e868861151290919063ffffffff16565b9050610b3982610d4f565b811115610bae576040517f08c379a00000000000000000000000000000000000000000000000000000000081526004018080602001828103825260128152602001807f62616c616e6365206e6f7420656e6f756768000000000000000000000000000081525060200191505060405180910390fd5b610bb98289896111ed565b610bc48233886111ed565b600160038b6040518082805190602001908083835b60208310610bfc5780518252602082019150602081019050602083039250610bd9565b6001836020036101000a038019825116818451168082178552505050505050905001915050908152602001604051809103902060006101000a81548160ff0219169083151502179055508773ffffffffffffffffffffffffffffffffffffffff168273ffffffffffffffffffffffffffffffffffffffff163373ffffffffffffffffffffffffffffffffffffffff167f339e733e8f3d5b80a99579a1bd0d885dd3d96783439f354abebcd98f88b6462c8a6040518082815260200191505060405180910390a43373ffffffffffffffffffffffffffffffffffffffff168273ffffffffffffffffffffffffffffffffffffffff163373ffffffffffffffffffffffffffffffffffffffff167f339e733e8f3d5b80a99579a1bd0d885dd3d96783439f354abebcd98f88b6462c896040518082815260200191505060405180910390a4600193505050509695505050505050565b60008060008373ffffffffffffffffffffffffffffffffffffffff1673ffffffffffffffffffffffffffffffffffffffff168152602001908152602001600020549050919050565b6000610e323384610e2d85600160003373ffffffffffffffffffffffffffffffffffffffff1673ffffffffffffffffffffffffffffffffffffffff16815260200190815260200160002060008973ffffffffffffffffffffffffffffffffffffffff1673ffffffffffffffffffffffffffffffffffffffff1681526020019081526020016000205461148990919063ffffffff16565b610ff6565b6001905092915050565b6000610e493384846111ed565b6001905092915050565b6000610e6882846115f290919063ffffffff16565b905092915050565b6000600160008473ffffffffffffffffffffffffffffffffffffffff1673ffffffffffffffffffffffffffffffffffffffff16815260200190815260200160002060008373ffffffffffffffffffffffffffffffffffffffff1673ffffffffffffffffffffffffffffffffffffffff16815260200190815260200160002054905092915050565b600080826040516020018082805190602001908083835b60208310610f315780518252602082019150602081019050602083039250610f0e565b6001836020036101000a03801982511681845116808217855250505050505090500191505060405160208183030381529060405280519060200120905080915050919050565b60008085858585604051602001808573ffffffffffffffffffffffffffffffffffffffff1673ffffffffffffffffffffffffffffffffffffffff1660601b815260140184815260200183815260200182815260200194505050505060405160208183030381529060405280519060200120905080915050949350505050565b600073ffffffffffffffffffffffffffffffffffffffff168373ffffffffffffffffffffffffffffffffffffffff16141561107c576040517f08c379a00000000000000000000000000000000000000000000000000000000081526004018080602001828103825260248152602001806117826024913960400191505060405180910390fd5b600073ffffffffffffffffffffffffffffffffffffffff168273ffffffffffffffffffffffffffffffffffffffff161415611102576040517f08c379a000000000000000000000000000000000000000000000000000000000815260040180806020018281038252602281526020018061173b6022913960400191505060405180910390fd5b80600160008573ffffffffffffffffffffffffffffffffffffffff1673ffffffffffffffffffffffffffffffffffffffff16815260200190815260200160002060008473ffffffffffffffffffffffffffffffffffffffff1673ffffffffffffffffffffffffffffffffffffffff168152602001908152602001600020819055508173ffffffffffffffffffffffffffffffffffffffff168373ffffffffffffffffffffffffffffffffffffffff167f8c5be1e5ebec7d5bd14f71427d1e84f3dd0314c0f7b2291e5b200ac8c7c3b925836040518082815260200191505060405180910390a3505050565b600073ffffffffffffffffffffffffffffffffffffffff168373ffffffffffffffffffffffffffffffffffffffff161415611273576040517f08c379a000000000000000000000000000000000000000000000000000000000815260040180806020018281038252602581526020018061175d6025913960400191505060405180910390fd5b600073ffffffffffffffffffffffffffffffffffffffff168273ffffffffffffffffffffffffffffffffffffffff1614156112f9576040517f08c379a00000000000000000000000000000000000000000000000000000000081526004018080602001828103825260238152602001806116f76023913960400191505060405180910390fd5b61134a816000808673ffffffffffffffffffffffffffffffffffffffff1673ffffffffffffffffffffffffffffffffffffffff1681526020019081526020016000205461148990919063ffffffff16565b6000808573ffffffffffffffffffffffffffffffffffffffff1673ffffffffffffffffffffffffffffffffffffffff168152602001908152602001600020819055506113dd816000808573ffffffffffffffffffffffffffffffffffffffff1673ffffffffffffffffffffffffffffffffffffffff1681526020019081526020016000205461151290919063ffffffff16565b6000808473ffffffffffffffffffffffffffffffffffffffff1673ffffffffffffffffffffffffffffffffffffffff168152602001908152602001600020819055508173ffffffffffffffffffffffffffffffffffffffff168373ffffffffffffffffffffffffffffffffffffffff167fddf252ad1be2c89b69c2b068fc378daa952ba7f163c4a11628f55a4df523b3ef836040518082815260200191505060405180910390a3505050565b600082821115611501576040517f08c379a000000000000000000000000000000000000000000000000000000000815260040180806020018281038252601e8152602001807f536166654d6174683a207375627472616374696f6e206f766572666c6f77000081525060200191505060405180910390fd5b600082840390508091505092915050565b600080828401905083811015611590576040517f08c379a000000000000000000000000000000000000000000000000000000000815260040180806020018281038252601b8152602001807f536166654d6174683a206164646974696f6e206f766572666c6f77000000000081525060200191505060405180910390fd5b8091505092915050565b60008160405160200180807f19457468657265756d205369676e6564204d6573736167653a0a333200000000815250601c01828152602001915050604051602081830303815290604052805190602001209050919050565b6000604182511461160657600090506116f0565b60008060006020850151925060408501519150606085015160001a90507f7fffffffffffffffffffffffffffffff5d576e7357a4501ddfe92f46681b20a08260001c111561165a57600093505050506116f0565b601b8160ff16141580156116725750601c8160ff1614155b1561168357600093505050506116f0565b60018682858560405160008152602001604052604051808581526020018460ff1660ff1681526020018381526020018281526020019450505050506020604051602081039080840390855afa1580156116e0573d6000803e3d6000fd5b5050506020604051035193505050505b9291505056fe45524332303a207472616e7366657220746f20746865207a65726f206164647265737364657374696e6174696f6e2061646472657373206d757374206e6f74207a65726f45524332303a20617070726f766520746f20746865207a65726f206164647265737345524332303a207472616e736665722066726f6d20746865207a65726f206164647265737345524332303a20617070726f76652066726f6d20746865207a65726f2061646472657373a165627a7a723058206301e3191bcc1d1a174780a50d16ee81650278af268ef3cff16480bd600a61210029",
  "source": "pragma solidity >=0.4.21 <0.6.0;\r\n\r\nimport \"./IERC865.sol\";\r\nimport \"openzeppelin-solidity/contracts/math/SafeMath.sol\";\r\nimport \"openzeppelin-solidity/contracts/token/ERC20/ERC20.sol\";\r\nimport \"openzeppelin-solidity/contracts/cryptography/ECDSA.sol\";\r\n\r\ncontract ERC865 is IERC865, ERC20 {\r\n    using SafeMath for uint;\r\n    using ECDSA for bytes32;\r\n\r\n    mapping(bytes => bool) signatures;\r\n\r\n    /**\r\n     * @dev Allows a delegate to submit a transaction on behalf of the token holder.\r\n     * @param _signature The signature, issued by the token holder.\r\n     * @param _to The recipient's address.\r\n     * @param _value The amount of tokens to be transferred.\r\n     * @param _fee The amount of tokens paid to the delegate for gas costs.\r\n     * @param _nonce The transaction number.\r\n     */\r\n    function transferPreSigned(\r\n        bytes memory _signature,\r\n        address payable _from,\r\n        address payable _to,\r\n        uint256 _value,\r\n        uint256 _fee,\r\n        uint256 _nonce\r\n    ) public returns (bool) {\r\n        require(_to != address(0), \"destination address must not zero\");\r\n        require(signatures[_signature] == false, \"transaction already complete\");\r\n\r\n        //Create a hash of the transaction details\r\n        bytes32 hashedTx = _transferPreSignedHashing(_to, _value, _fee, _nonce);\r\n        hashedTx = hashedTx.toEthSignedMessageHash();\r\n\r\n        //Obtain the token holder's address and check balance\r\n        address from = hashedTx.recover(_signature);\r\n        require(from == _from, \"invalid signature\");\r\n        uint256 total = _value.add(_fee);\r\n        require(total <= balanceOf(from), \"balance not enough\");\r\n\r\n        // Transfer tokens\r\n        _transfer(from, _to, _value);\r\n        _transfer(from, msg.sender, _fee);\r\n\r\n        // Mark transaction as completed\r\n        signatures[_signature] = true;\r\n\r\n        //TransferPreSigned ERC865 events\r\n        emit TransferPreSigned(msg.sender, from, _to, _value);\r\n        emit TransferPreSigned(msg.sender, from, msg.sender, _fee);\r\n\r\n        return true;\r\n    }\r\n\r\n    /**\r\n     * @dev Creates a hash of the transaction information passed to transferPresigned.\r\n     * @param _to address The address which you want to transfer to.\r\n     * @param _value uint256 The amount of tokens to be transferred.\r\n     * @param _fee uint256 The amount of tokens paid to msg.sender, by the owner.\r\n     * @param _nonce uint256 Presigned transaction number.\r\n     * @return A copy of the hashed message signed by the token holder, with prefix added.\r\n     */\r\n    function _transferPreSignedHashing(\r\n        address _to,\r\n        uint256 _value,\r\n        uint256 _fee,\r\n        uint256 _nonce\r\n    )\r\n        internal pure\r\n        returns (bytes32)\r\n    {\r\n        //Create a copy of thehashed message signed by the token holder\r\n        bytes32 hash = keccak256(abi.encodePacked(_to, _value, _fee, _nonce));\r\n\r\n        //Add prefix to hash\r\n        return hash;\r\n    }\r\n\r\n    function createTransferHashing(\r\n        address _to,\r\n        uint256 _value,\r\n        uint256 _fee,\r\n        uint256 _nonce\r\n    )\r\n        public pure\r\n        returns (bytes32) \r\n    {\r\n        return _transferPreSignedHashing(_to, _value, _fee, _nonce);\r\n    }\r\n\r\n    function testRecover(\r\n        bytes32 hash,\r\n        bytes memory signature\r\n    ) \r\n    public pure\r\n    returns (address) {\r\n        return hash.recover(signature);\r\n    }\r\n\r\n    function testHash(\r\n        bytes memory _text\r\n    )\r\n    public pure\r\n    returns (bytes32)\r\n    {\r\n        //Create a copy of thehashed message signed by the token holder\r\n        bytes32 hash = keccak256(abi.encodePacked(_text));\r\n\r\n        //Add prefix to hash\r\n        return hash;\r\n    }\r\n\r\n    \r\n}",
  "sourcePath": "D:\\node project\\feeless-poc\\contracts\\ERC865.sol",
  "compiler": {
    "name": "solc",
    "version": "0.5.8+commit.23d335f2.Emscripten.clang"
  },
  "schemaVersion": "3.0.10",
  "updatedAt": "2019-07-31T01:46:50.771Z",
  "devdoc": {
    "methods": {
      "allowance(address,address)": {
        "details": "See `IERC20.allowance`."
      },
      "approve(address,uint256)": {
        "details": "See `IERC20.approve`.     * Requirements:     * - `spender` cannot be the zero address."
      },
      "balanceOf(address)": {
        "details": "See `IERC20.balanceOf`."
      },
      "decreaseAllowance(address,uint256)": {
        "details": "Atomically decreases the allowance granted to `spender` by the caller.     * This is an alternative to `approve` that can be used as a mitigation for problems described in `IERC20.approve`.     * Emits an `Approval` event indicating the updated allowance.     * Requirements:     * - `spender` cannot be the zero address. - `spender` must have allowance for the caller of at least `subtractedValue`."
      },
      "increaseAllowance(address,uint256)": {
        "details": "Atomically increases the allowance granted to `spender` by the caller.     * This is an alternative to `approve` that can be used as a mitigation for problems described in `IERC20.approve`.     * Emits an `Approval` event indicating the updated allowance.     * Requirements:     * - `spender` cannot be the zero address."
      },
      "totalSupply()": {
        "details": "See `IERC20.totalSupply`."
      },
      "transfer(address,uint256)": {
        "details": "See `IERC20.transfer`.     * Requirements:     * - `recipient` cannot be the zero address. - the caller must have a balance of at least `amount`."
      },
      "transferFrom(address,address,uint256)": {
        "details": "See `IERC20.transferFrom`.     * Emits an `Approval` event indicating the updated allowance. This is not required by the EIP. See the note at the beginning of `ERC20`;     * Requirements: - `sender` and `recipient` cannot be the zero address. - `sender` must have a balance of at least `value`. - the caller must have allowance for `sender`'s tokens of at least `amount`."
      },
      "transferPreSigned(bytes,address,address,uint256,uint256,uint256)": {
        "details": "Allows a delegate to submit a transaction on behalf of the token holder.\r",
        "params": {
          "_fee": "The amount of tokens paid to the delegate for gas costs.\r",
          "_nonce": "The transaction number.\r",
          "_signature": "The signature, issued by the token holder.\r",
          "_to": "The recipient's address.\r",
          "_value": "The amount of tokens to be transferred.\r"
        }
      }
    }
  },
  "userdoc": {
    "methods": {}
  }
}