{
  "contractName": "Factory",
  "abi": [
    {
      "anonymous": false,
      "inputs": [
        {
          "indexed": false,
          "name": "addr",
          "type": "address"
        },
        {
          "indexed": false,
          "name": "salt",
          "type": "uint256"
        }
      ],
      "name": "Deployed",
      "type": "event"
    },
    {
      "constant": false,
      "inputs": [
        {
          "name": "code",
          "type": "bytes"
        },
        {
          "name": "salt",
          "type": "uint256"
        }
      ],
      "name": "deploy",
      "outputs": [],
      "payable": false,
      "stateMutability": "nonpayable",
      "type": "function"
    }
  ],
  "bytecode": "0x608060405234801561001057600080fd5b506101aa806100206000396000f3fe608060405234801561001057600080fd5b506004361061002b5760003560e01c80639c4ae2d014610030575b600080fd5b6100f36004803603604081101561004657600080fd5b810190808035906020019064010000000081111561006357600080fd5b82018360208201111561007557600080fd5b8035906020019184600183028401116401000000008311171561009757600080fd5b91908080601f016020809104026020016040519081016040528093929190818152602001838380828437600081840152601f19601f820116905080830192505050505050509192919290803590602001909291905050506100f5565b005b6000818351602085016000f59050803b61010e57600080fd5b7fb03c53b28e78a88e31607a27e1fa48234dce28d5d9d9ec7b295aeb02e674a1e18183604051808373ffffffffffffffffffffffffffffffffffffffff1673ffffffffffffffffffffffffffffffffffffffff1681526020018281526020019250505060405180910390a150505056fea165627a7a72305820f63cbe2d415acd8a5a13efe541b68fb592d8d4256f8b39c672e12124b380d3250029",
  "source": "pragma solidity >0.4.99 <0.6.0;\n\ncontract Factory {\n  event Deployed(address addr, uint256 salt);\n\n  function deploy(bytes memory code, uint256 salt) public {\n    address addr;\n    assembly {\n      addr := create2(0, add(code, 0x20), mload(code), salt)\n      if iszero(extcodesize(addr)) {\n        revert(0, 0)\n      }\n    }\n\n    emit Deployed(addr, salt);\n  }\n}\n",
  "sourcePath": "D:/node project/feeless-poc/contracts/Factory.sol",
  "compiler": {
    "name": "solc",
    "version": "0.5.8+commit.23d335f2.Emscripten.clang"
  },
  "schemaVersion": "3.0.10",
  "updatedAt": "2019-07-31T01:49:39.265Z",
  "devdoc": {
    "methods": {}
  },
  "userdoc": {
    "methods": {}
  }
}