{
  "contractName": "Wallet",
  "abi": [
    {
      "constant": true,
      "inputs": [
        {
          "name": "_actor",
          "type": "address"
        }
      ],
      "name": "isOwner",
      "outputs": [
        {
          "name": "",
          "type": "bool"
        }
      ],
      "payable": false,
      "stateMutability": "view",
      "type": "function"
    },
    {
      "constant": true,
      "inputs": [],
      "name": "registry",
      "outputs": [
        {
          "name": "",
          "type": "address"
        }
      ],
      "payable": false,
      "stateMutability": "view",
      "type": "function"
    },
    {
      "constant": true,
      "inputs": [],
      "name": "owner",
      "outputs": [
        {
          "name": "",
          "type": "address"
        }
      ],
      "payable": false,
      "stateMutability": "view",
      "type": "function"
    },
    {
      "inputs": [
        {
          "name": "_newOwner",
          "type": "address"
        }
      ],
      "payable": false,
      "stateMutability": "nonpayable",
      "type": "constructor"
    },
    {
      "payable": true,
      "stateMutability": "payable",
      "type": "fallback"
    },
    {
      "anonymous": false,
      "inputs": [
        {
          "indexed": true,
          "name": "from",
          "type": "address"
        },
        {
          "indexed": false,
          "name": "amount",
          "type": "uint256"
        }
      ],
      "name": "Deposit",
      "type": "event"
    },
    {
      "anonymous": false,
      "inputs": [
        {
          "indexed": true,
          "name": "to",
          "type": "address"
        },
        {
          "indexed": false,
          "name": "amount",
          "type": "uint256"
        }
      ],
      "name": "Transfer",
      "type": "event"
    },
    {
      "anonymous": false,
      "inputs": [
        {
          "indexed": true,
          "name": "previousOwner",
          "type": "address"
        },
        {
          "indexed": true,
          "name": "newOwner",
          "type": "address"
        }
      ],
      "name": "OwnershipTransferred",
      "type": "event"
    },
    {
      "constant": false,
      "inputs": [
        {
          "name": "_registryAddress",
          "type": "address"
        }
      ],
      "name": "setRegistryAddress",
      "outputs": [],
      "payable": false,
      "stateMutability": "nonpayable",
      "type": "function"
    },
    {
      "constant": false,
      "inputs": [
        {
          "name": "_payee",
          "type": "address"
        },
        {
          "name": "_amount",
          "type": "uint256"
        }
      ],
      "name": "transfer",
      "outputs": [],
      "payable": false,
      "stateMutability": "nonpayable",
      "type": "function"
    },
    {
      "constant": true,
      "inputs": [
        {
          "name": "_payee",
          "type": "address"
        },
        {
          "name": "_amount",
          "type": "uint256"
        },
        {
          "name": "_fee",
          "type": "uint256"
        },
        {
          "name": "_nonce",
          "type": "uint256"
        }
      ],
      "name": "createPreAuthTransfer",
      "outputs": [
        {
          "name": "",
          "type": "bytes32"
        }
      ],
      "payable": false,
      "stateMutability": "pure",
      "type": "function"
    },
    {
      "constant": false,
      "inputs": [
        {
          "name": "_signature",
          "type": "bytes"
        },
        {
          "name": "_payee",
          "type": "address"
        },
        {
          "name": "_amount",
          "type": "uint256"
        },
        {
          "name": "_fee",
          "type": "uint256"
        },
        {
          "name": "_nonce",
          "type": "uint256"
        }
      ],
      "name": "preAuthTransfer",
      "outputs": [],
      "payable": false,
      "stateMutability": "nonpayable",
      "type": "function"
    },
    {
      "constant": false,
      "inputs": [
        {
          "name": "_tokenAddr",
          "type": "address"
        },
        {
          "name": "_payee",
          "type": "address"
        },
        {
          "name": "_amount",
          "type": "uint256"
        }
      ],
      "name": "transferToken",
      "outputs": [],
      "payable": false,
      "stateMutability": "nonpayable",
      "type": "function"
    },
    {
      "constant": true,
      "inputs": [
        {
          "name": "_tokenAddr",
          "type": "address"
        },
        {
          "name": "_payee",
          "type": "address"
        },
        {
          "name": "_amount",
          "type": "uint256"
        },
        {
          "name": "_fee",
          "type": "uint256"
        },
        {
          "name": "_nonce",
          "type": "uint256"
        }
      ],
      "name": "createPreAuthTransferToken",
      "outputs": [
        {
          "name": "",
          "type": "bytes32"
        }
      ],
      "payable": false,
      "stateMutability": "pure",
      "type": "function"
    },
    {
      "constant": false,
      "inputs": [
        {
          "name": "_signature",
          "type": "bytes"
        },
        {
          "name": "_tokenAddr",
          "type": "address"
        },
        {
          "name": "_payee",
          "type": "address"
        },
        {
          "name": "_amount",
          "type": "uint256"
        },
        {
          "name": "_fee",
          "type": "uint256"
        },
        {
          "name": "_nonce",
          "type": "uint256"
        }
      ],
      "name": "preAuthTransferToken",
      "outputs": [],
      "payable": false,
      "stateMutability": "nonpayable",
      "type": "function"
    },
    {
      "constant": false,
      "inputs": [
        {
          "name": "recipient",
          "type": "address"
        }
      ],
      "name": "destroy",
      "outputs": [],
      "payable": false,
      "stateMutability": "nonpayable",
      "type": "function"
    }
  ],
  "bytecode": "0x608060405234801561001057600080fd5b50604051602080611c078339810180604052602081101561003057600080fd5b81019080805190602001909291905050506100508161005660201b60201c565b50610114565b8073ffffffffffffffffffffffffffffffffffffffff166000809054906101000a900473ffffffffffffffffffffffffffffffffffffffff1673ffffffffffffffffffffffffffffffffffffffff167f8be0079c531659141344cd1fd0a4f28419497f9722a3daafe3b4186f6b6457e060405160405180910390a3806000806101000a81548173ffffffffffffffffffffffffffffffffffffffff021916908373ffffffffffffffffffffffffffffffffffffffff16021790555050565b611ae4806101236000396000f3fe60806040526004361061009b5760003560e01c80637b103999116100645780637b103999146104745780638ac3e81e146104cb5780638da5cb5b1461054e578063a9059cbb146105a5578063ab7b499314610600578063f5537ede146106515761009b565b8062f55d9d146100eb57806328eb4f1b1461013c5780632f54bf6e14610242578063570597e8146102ab5780636a61af601461034e575b3373ffffffffffffffffffffffffffffffffffffffff167fe1fffcc4923d04b559f4d29a8bfc6cda04eb5b0d3c460751c2402c5c5cc9109c346040518082815260200191505060405180910390a2005b3480156100f757600080fd5b5061013a6004803603602081101561010e57600080fd5b81019080803573ffffffffffffffffffffffffffffffffffffffff1690602001909291905050506106cc565b005b34801561014857600080fd5b50610240600480360360a081101561015f57600080fd5b810190808035906020019064010000000081111561017c57600080fd5b82018360208201111561018e57600080fd5b803590602001918460018302840111640100000000831117156101b057600080fd5b91908080601f016020809104026020016040519081016040528093929190818152602001838380828437600081840152601f19601f820116905080830192505050505050509192919290803573ffffffffffffffffffffffffffffffffffffffff169060200190929190803590602001909291908035906020019092919080359060200190929190505050610761565b005b34801561024e57600080fd5b506102916004803603602081101561026557600080fd5b81019080803573ffffffffffffffffffffffffffffffffffffffff169060200190929190505050610ac8565b604051808215151515815260200191505060405180910390f35b3480156102b757600080fd5b50610338600480360360a08110156102ce57600080fd5b81019080803573ffffffffffffffffffffffffffffffffffffffff169060200190929190803573ffffffffffffffffffffffffffffffffffffffff169060200190929190803590602001909291908035906020019092919080359060200190929190505050610cb4565b6040518082815260200191505060405180910390f35b34801561035a57600080fd5b50610472600480360360c081101561037157600080fd5b810190808035906020019064010000000081111561038e57600080fd5b8201836020820111156103a057600080fd5b803590602001918460018302840111640100000000831117156103c257600080fd5b91908080601f016020809104026020016040519081016040528093929190818152602001838380828437600081840152601f19601f820116905080830192505050505050509192919290803573ffffffffffffffffffffffffffffffffffffffff169060200190929190803573ffffffffffffffffffffffffffffffffffffffff169060200190929190803590602001909291908035906020019092919080359060200190929190505050610d6b565b005b34801561048057600080fd5b506104896112ec565b604051808273ffffffffffffffffffffffffffffffffffffffff1673ffffffffffffffffffffffffffffffffffffffff16815260200191505060405180910390f35b3480156104d757600080fd5b50610538600480360360808110156104ee57600080fd5b81019080803573ffffffffffffffffffffffffffffffffffffffff169060200190929190803590602001909291908035906020019092919080359060200190929190505050611316565b6040518082815260200191505060405180910390f35b34801561055a57600080fd5b50610563611395565b604051808273ffffffffffffffffffffffffffffffffffffffff1673ffffffffffffffffffffffffffffffffffffffff16815260200191505060405180910390f35b3480156105b157600080fd5b506105fe600480360360408110156105c857600080fd5b81019080803573ffffffffffffffffffffffffffffffffffffffff169060200190929190803590602001909291905050506113be565b005b34801561060c57600080fd5b5061064f6004803603602081101561062357600080fd5b81019080803573ffffffffffffffffffffffffffffffffffffffff169060200190929190505050611449565b005b34801561065d57600080fd5b506106ca6004803603606081101561067457600080fd5b81019080803573ffffffffffffffffffffffffffffffffffffffff169060200190929190803573ffffffffffffffffffffffffffffffffffffffff169060200190929190803590602001909291905050506114d2565b005b336106d681610ac8565b610748576040517f08c379a00000000000000000000000000000000000000000000000000000000081526004018080602001828103825260208152602001807f4f776e61626c653a2063616c6c6572206973206e6f7420746865206f776e657281525060200191505060405180910390fd5b8173ffffffffffffffffffffffffffffffffffffffff16ff5b600073ffffffffffffffffffffffffffffffffffffffff168473ffffffffffffffffffffffffffffffffffffffff1614156107e7576040517f08c379a0000000000000000000000000000000000000000000000000000000008152600401808060200182810382526021815260200180611a986021913960400191505060405180910390fd5b600015156002866040518082805190602001908083835b6020831061082157805182526020820191506020810190506020830392506107fe565b6001836020036101000a038019825116818451168082178552505050505050905001915050908152602001604051809103902060009054906101000a900460ff161515146108d7576040517f08c379a000000000000000000000000000000000000000000000000000000000815260040180806020018281038252601c8152602001807f7472616e73616374696f6e20616c726561647920636f6d706c6574650000000081525060200191505060405180910390fd5b60006108e585858585611316565b90506108f08161174a565b9050600061090787836117a290919063ffffffff16565b905061091281610ac8565b610984576040517f08c379a00000000000000000000000000000000000000000000000000000000081526004018080602001828103825260118152602001807f696e76616c6964207369676e617475726500000000000000000000000000000081525060200191505060405180910390fd5b600061099985876118a690919063ffffffff16565b90503073ffffffffffffffffffffffffffffffffffffffff1631811115610a28576040517f08c379a00000000000000000000000000000000000000000000000000000000081526004018080602001828103825260128152602001807f62616c616e6365206e6f7420656e6f756768000000000000000000000000000081525060200191505060405180910390fd5b610a32878761192e565b610a3c338661192e565b60016002896040518082805190602001908083835b60208310610a745780518252602082019150602081019050602083039250610a51565b6001836020036101000a038019825116818451168082178552505050505050905001915050908152602001604051809103902060006101000a81548160ff0219169083151502179055505050505050505050565b60008073ffffffffffffffffffffffffffffffffffffffff16600160009054906101000a900473ffffffffffffffffffffffffffffffffffffffff1673ffffffffffffffffffffffffffffffffffffffff161415610b77576000809054906101000a900473ffffffffffffffffffffffffffffffffffffffff1673ffffffffffffffffffffffffffffffffffffffff168273ffffffffffffffffffffffffffffffffffffffff16149050610caf565b6000600160009054906101000a900473ffffffffffffffffffffffffffffffffffffffff1690508073ffffffffffffffffffffffffffffffffffffffff1663c25f77186000809054906101000a900473ffffffffffffffffffffffffffffffffffffffff16856040518363ffffffff1660e01b8152600401808373ffffffffffffffffffffffffffffffffffffffff1673ffffffffffffffffffffffffffffffffffffffff1681526020018273ffffffffffffffffffffffffffffffffffffffff1673ffffffffffffffffffffffffffffffffffffffff1681526020019250505060206040518083038186803b158015610c7057600080fd5b505afa158015610c84573d6000803e3d6000fd5b505050506040513d6020811015610c9a57600080fd5b81019080805190602001909291905050509150505b919050565b6000808686868686604051602001808673ffffffffffffffffffffffffffffffffffffffff1673ffffffffffffffffffffffffffffffffffffffff1660601b81526014018573ffffffffffffffffffffffffffffffffffffffff1673ffffffffffffffffffffffffffffffffffffffff1660601b8152601401848152602001838152602001828152602001955050505050506040516020818303038152906040528051906020012090508091505095945050505050565b600073ffffffffffffffffffffffffffffffffffffffff168473ffffffffffffffffffffffffffffffffffffffff161415610df1576040517f08c379a0000000000000000000000000000000000000000000000000000000008152600401808060200182810382526021815260200180611a986021913960400191505060405180910390fd5b600015156002876040518082805190602001908083835b60208310610e2b5780518252602082019150602081019050602083039250610e08565b6001836020036101000a038019825116818451168082178552505050505050905001915050908152602001604051809103902060009054906101000a900460ff16151514610ee1576040517f08c379a000000000000000000000000000000000000000000000000000000000815260040180806020018281038252601c8152602001807f7472616e73616374696f6e20616c726561647920636f6d706c6574650000000081525060200191505060405180910390fd5b6000610ef08686868686610cb4565b9050610efb8161174a565b90506000610f1288836117a290919063ffffffff16565b9050610f1d81610ac8565b610f8f576040517f08c379a00000000000000000000000000000000000000000000000000000000081526004018080602001828103825260118152602001807f696e76616c6964207369676e617475726500000000000000000000000000000081525060200191505060405180910390fd5b6000610fa485876118a690919063ffffffff16565b905060008890508073ffffffffffffffffffffffffffffffffffffffff166370a08231306040518263ffffffff1660e01b8152600401808273ffffffffffffffffffffffffffffffffffffffff1673ffffffffffffffffffffffffffffffffffffffff16815260200191505060206040518083038186803b15801561102857600080fd5b505afa15801561103c573d6000803e3d6000fd5b505050506040513d602081101561105257600080fd5b81019080805190602001909291905050508211156110d8576040517f08c379a00000000000000000000000000000000000000000000000000000000081526004018080602001828103825260128152602001807f62616c616e6365206e6f7420656e6f756768000000000000000000000000000081525060200191505060405180910390fd5b8073ffffffffffffffffffffffffffffffffffffffff1663a9059cbb89896040518363ffffffff1660e01b8152600401808373ffffffffffffffffffffffffffffffffffffffff1673ffffffffffffffffffffffffffffffffffffffff16815260200182815260200192505050602060405180830381600087803b15801561115f57600080fd5b505af1158015611173573d6000803e3d6000fd5b505050506040513d602081101561118957600080fd5b8101908080519060200190929190505050508073ffffffffffffffffffffffffffffffffffffffff1663a9059cbb33886040518363ffffffff1660e01b8152600401808373ffffffffffffffffffffffffffffffffffffffff1673ffffffffffffffffffffffffffffffffffffffff16815260200182815260200192505050602060405180830381600087803b15801561122257600080fd5b505af1158015611236573d6000803e3d6000fd5b505050506040513d602081101561124c57600080fd5b810190808051906020019092919050505050600160028b6040518082805190602001908083835b602083106112965780518252602082019150602081019050602083039250611273565b6001836020036101000a038019825116818451168082178552505050505050905001915050908152602001604051809103902060006101000a81548160ff02191690831515021790555050505050505050505050565b6000600160009054906101000a900473ffffffffffffffffffffffffffffffffffffffff16905090565b60008085858585604051602001808573ffffffffffffffffffffffffffffffffffffffff1673ffffffffffffffffffffffffffffffffffffffff1660601b815260140184815260200183815260200182815260200194505050505060405160208183030381529060405280519060200120905080915050949350505050565b60008060009054906101000a900473ffffffffffffffffffffffffffffffffffffffff16905090565b336113c881610ac8565b61143a576040517f08c379a00000000000000000000000000000000000000000000000000000000081526004018080602001828103825260208152602001807f4f776e61626c653a2063616c6c6572206973206e6f7420746865206f776e657281525060200191505060405180910390fd5b611444838361192e565b505050565b3361145381610ac8565b6114c5576040517f08c379a00000000000000000000000000000000000000000000000000000000081526004018080602001828103825260208152602001807f4f776e61626c653a2063616c6c6572206973206e6f7420746865206f776e657281525060200191505060405180910390fd5b6114ce82611a53565b5050565b336114dc81610ac8565b61154e576040517f08c379a00000000000000000000000000000000000000000000000000000000081526004018080602001828103825260208152602001807f4f776e61626c653a2063616c6c6572206973206e6f7420746865206f776e657281525060200191505060405180910390fd5b6000849050828173ffffffffffffffffffffffffffffffffffffffff166370a08231306040518263ffffffff1660e01b8152600401808273ffffffffffffffffffffffffffffffffffffffff1673ffffffffffffffffffffffffffffffffffffffff16815260200191505060206040518083038186803b1580156115d157600080fd5b505afa1580156115e5573d6000803e3d6000fd5b505050506040513d60208110156115fb57600080fd5b81019080805190602001909291905050501015611680576040517f08c379a00000000000000000000000000000000000000000000000000000000081526004018080602001828103825260108152602001807f6e6f7420656e6f75676820746f6b656e0000000000000000000000000000000081525060200191505060405180910390fd5b8073ffffffffffffffffffffffffffffffffffffffff1663a9059cbb85856040518363ffffffff1660e01b8152600401808373ffffffffffffffffffffffffffffffffffffffff1673ffffffffffffffffffffffffffffffffffffffff16815260200182815260200192505050602060405180830381600087803b15801561170757600080fd5b505af115801561171b573d6000803e3d6000fd5b505050506040513d602081101561173157600080fd5b8101908080519060200190929190505050505050505050565b60008160405160200180807f19457468657265756d205369676e6564204d6573736167653a0a333200000000815250601c01828152602001915050604051602081830303815290604052805190602001209050919050565b600060418251146117b657600090506118a0565b60008060006020850151925060408501519150606085015160001a90507f7fffffffffffffffffffffffffffffff5d576e7357a4501ddfe92f46681b20a08260001c111561180a57600093505050506118a0565b601b8160ff16141580156118225750601c8160ff1614155b1561183357600093505050506118a0565b60018682858560405160008152602001604052604051808581526020018460ff1660ff1681526020018381526020018281526020019450505050506020604051602081039080840390855afa158015611890573d6000803e3d6000fd5b5050506020604051035193505050505b92915050565b600080828401905083811015611924576040517f08c379a000000000000000000000000000000000000000000000000000000000815260040180806020018281038252601b8152602001807f536166654d6174683a206164646974696f6e206f766572666c6f77000000000081525060200191505060405180910390fd5b8091505092915050565b3073ffffffffffffffffffffffffffffffffffffffff163181106119ba576040517f08c379a00000000000000000000000000000000000000000000000000000000081526004018080602001828103825260128152602001807f6e6f7420656e6f7567682062616c616e6365000000000000000000000000000081525060200191505060405180910390fd5b8173ffffffffffffffffffffffffffffffffffffffff166108fc829081150290604051600060405180830381858888f19350505050158015611a00573d6000803e3d6000fd5b508173ffffffffffffffffffffffffffffffffffffffff167f69ca02dd4edd7bf0a4abb9ed3b7af3f14778db5d61921c7dc7cd545266326de2826040518082815260200191505060405180910390a25050565b80600160006101000a81548173ffffffffffffffffffffffffffffffffffffffff021916908373ffffffffffffffffffffffffffffffffffffffff1602179055505056fe64657374696e6174696f6e2061646472657373206d757374206e6f74207a65726fa165627a7a7230582069e5b4fc92a21edd7f035ae17de5a0fb6bb88fdd2470875f1f952d245997fb6f0029",
  "source": "pragma solidity >0.4.99 <0.6.0;\r\n\r\nimport \"openzeppelin-solidity/contracts/math/SafeMath.sol\";\r\nimport \"openzeppelin-solidity/contracts/cryptography/ECDSA.sol\";\r\nimport \"openzeppelin-solidity/contracts/token/ERC20/IERC20.sol\";\r\nimport \"./Ownable.sol\";\r\n\r\ncontract Wallet is Ownable {\r\n    using SafeMath for uint;\r\n    using ECDSA for bytes32;\r\n\r\n    mapping(bytes => bool) signatures;\r\n\r\n    event Deposit(address indexed from, uint256 amount);\r\n    event Transfer(address indexed to, uint256 amount);\r\n\r\n    constructor(address _newOwner) public {\r\n        _transferOwnership(_newOwner);\r\n    }\r\n\r\n    function () external payable {\r\n        emit Deposit(msg.sender, msg.value);\r\n    }\r\n\r\n    function setRegistryAddress(address _registryAddress) public onlyOwner(msg.sender) {\r\n        _setRegistryAddress(_registryAddress);\r\n    }\r\n\r\n    function transfer(address payable _payee, uint256 _amount) public onlyOwner(msg.sender) {\r\n        _transfer(_payee, _amount);\r\n    }\r\n\r\n    function createPreAuthTransfer(address payable _payee, uint256 _amount, uint256 _fee, uint256 _nonce) public pure returns (bytes32) {\r\n        bytes32 hash = keccak256(abi.encodePacked(_payee, _amount, _fee, _nonce));\r\n        return hash;\r\n    }\r\n\r\n    function preAuthTransfer(bytes memory _signature, address payable _payee, uint256 _amount, uint256 _fee, uint256 _nonce) public {\r\n        require(_payee != address(0), \"destination address must not zero\");\r\n        require(signatures[_signature] == false, \"transaction already complete\");\r\n\r\n        //Create a hash of the transaction details\r\n        bytes32 hashedTx = createPreAuthTransfer(_payee, _amount, _fee, _nonce);\r\n        hashedTx = hashedTx.toEthSignedMessageHash();\r\n\r\n        //Obtain the token holder's address and check balance\r\n        address from = hashedTx.recover(_signature);\r\n        require(isOwner(from), \"invalid signature\");\r\n        uint256 total = _amount.add(_fee);\r\n        require(total <= address(this).balance, \"balance not enough\");\r\n\r\n        // Transfer ether\r\n        _transfer(_payee, _amount);\r\n        _transfer(msg.sender, _fee);\r\n\r\n        // Mark transaction as completed\r\n        signatures[_signature] = true;\r\n    }\r\n\r\n    function transferToken(address _tokenAddr, address payable _payee, uint256 _amount) public onlyOwner(msg.sender) {\r\n        IERC20 token = IERC20(_tokenAddr);\r\n        require(token.balanceOf(address(this)) >= _amount, \"not enough token\");\r\n        token.transfer(_payee, _amount);\r\n    }\r\n\r\n    function createPreAuthTransferToken(address _tokenAddr, address payable _payee, uint256 _amount, uint256 _fee, uint256 _nonce) public pure returns (bytes32) {\r\n        bytes32 hash = keccak256(abi.encodePacked(_tokenAddr, _payee, _amount, _fee, _nonce));\r\n        return hash;\r\n    }\r\n\r\n    function preAuthTransferToken(bytes memory _signature, address _tokenAddr, address payable _payee, uint256 _amount, uint256 _fee, uint256 _nonce) public {\r\n        require(_payee != address(0), \"destination address must not zero\");\r\n        require(signatures[_signature] == false, \"transaction already complete\");\r\n\r\n        //Create a hash of the transaction details\r\n        bytes32 hashedTx = createPreAuthTransferToken(_tokenAddr, _payee, _amount, _fee, _nonce);\r\n        hashedTx = hashedTx.toEthSignedMessageHash();\r\n\r\n        //Obtain the token holder's address and check balance\r\n        address from = hashedTx.recover(_signature);\r\n        require(isOwner(from), \"invalid signature\");\r\n        uint256 total = _amount.add(_fee);\r\n        IERC20 token = IERC20(_tokenAddr);\r\n        require(total <= token.balanceOf(address(this)), \"balance not enough\");\r\n\r\n        // Transfer ether\r\n        token.transfer(_payee, _amount);\r\n        token.transfer(msg.sender, _fee);\r\n\r\n        // Mark transaction as completed\r\n        signatures[_signature] = true;\r\n    }\r\n\r\n    function destroy(address payable recipient) public onlyOwner(msg.sender) {\r\n        selfdestruct(recipient);\r\n    }\r\n\r\n    function _transfer(address payable _payee, uint256 _amount) internal {\r\n        require(_amount < address(this).balance, \"not enough balance\");\r\n        _payee.transfer(_amount);\r\n        emit Transfer(_payee, _amount);\r\n    }\r\n}",
  "sourcePath": "D:/node project/feeless-poc/contracts/Wallet.sol",
  "compiler": {
    "name": "solc",
    "version": "0.5.8+commit.23d335f2.Emscripten.clang"
  },
  "schemaVersion": "3.0.10",
  "updatedAt": "2019-07-28T19:13:41.717Z",
  "devdoc": {
    "methods": {}
  },
  "userdoc": {
    "methods": {}
  }
}