{
  "contractName": "TCCoin",
  "abi": [
    {
      "constant": true,
      "inputs": [],
      "name": "name",
      "outputs": [
        {
          "name": "",
          "type": "string"
        }
      ],
      "payable": false,
      "stateMutability": "view",
      "type": "function"
    },
    {
      "constant": true,
      "inputs": [
        {
          "name": "_to",
          "type": "address"
        },
        {
          "name": "_value",
          "type": "uint256"
        },
        {
          "name": "_fee",
          "type": "uint256"
        },
        {
          "name": "_nonce",
          "type": "uint256"
        }
      ],
      "name": "createTransferHashing",
      "outputs": [
        {
          "name": "",
          "type": "bytes32"
        }
      ],
      "payable": false,
      "stateMutability": "pure",
      "type": "function"
    },
    {
      "constant": false,
      "inputs": [
        {
          "name": "spender",
          "type": "address"
        },
        {
          "name": "value",
          "type": "uint256"
        }
      ],
      "name": "approve",
      "outputs": [
        {
          "name": "",
          "type": "bool"
        }
      ],
      "payable": false,
      "stateMutability": "nonpayable",
      "type": "function"
    },
    {
      "constant": true,
      "inputs": [],
      "name": "totalSupply",
      "outputs": [
        {
          "name": "",
          "type": "uint256"
        }
      ],
      "payable": false,
      "stateMutability": "view",
      "type": "function"
    },
    {
      "constant": false,
      "inputs": [
        {
          "name": "sender",
          "type": "address"
        },
        {
          "name": "recipient",
          "type": "address"
        },
        {
          "name": "amount",
          "type": "uint256"
        }
      ],
      "name": "transferFrom",
      "outputs": [
        {
          "name": "",
          "type": "bool"
        }
      ],
      "payable": false,
      "stateMutability": "nonpayable",
      "type": "function"
    },
    {
      "constant": true,
      "inputs": [],
      "name": "decimals",
      "outputs": [
        {
          "name": "",
          "type": "uint8"
        }
      ],
      "payable": false,
      "stateMutability": "view",
      "type": "function"
    },
    {
      "constant": false,
      "inputs": [
        {
          "name": "spender",
          "type": "address"
        },
        {
          "name": "addedValue",
          "type": "uint256"
        }
      ],
      "name": "increaseAllowance",
      "outputs": [
        {
          "name": "",
          "type": "bool"
        }
      ],
      "payable": false,
      "stateMutability": "nonpayable",
      "type": "function"
    },
    {
      "constant": false,
      "inputs": [
        {
          "name": "_signature",
          "type": "bytes"
        },
        {
          "name": "_from",
          "type": "address"
        },
        {
          "name": "_to",
          "type": "address"
        },
        {
          "name": "_value",
          "type": "uint256"
        },
        {
          "name": "_fee",
          "type": "uint256"
        },
        {
          "name": "_nonce",
          "type": "uint256"
        }
      ],
      "name": "transferPreSigned",
      "outputs": [
        {
          "name": "",
          "type": "bool"
        }
      ],
      "payable": false,
      "stateMutability": "nonpayable",
      "type": "function"
    },
    {
      "constant": true,
      "inputs": [
        {
          "name": "account",
          "type": "address"
        }
      ],
      "name": "balanceOf",
      "outputs": [
        {
          "name": "",
          "type": "uint256"
        }
      ],
      "payable": false,
      "stateMutability": "view",
      "type": "function"
    },
    {
      "constant": false,
      "inputs": [],
      "name": "renounceOwnership",
      "outputs": [],
      "payable": false,
      "stateMutability": "nonpayable",
      "type": "function"
    },
    {
      "constant": true,
      "inputs": [],
      "name": "owner",
      "outputs": [
        {
          "name": "",
          "type": "address"
        }
      ],
      "payable": false,
      "stateMutability": "view",
      "type": "function"
    },
    {
      "constant": true,
      "inputs": [],
      "name": "isOwner",
      "outputs": [
        {
          "name": "",
          "type": "bool"
        }
      ],
      "payable": false,
      "stateMutability": "view",
      "type": "function"
    },
    {
      "constant": true,
      "inputs": [],
      "name": "symbol",
      "outputs": [
        {
          "name": "",
          "type": "string"
        }
      ],
      "payable": false,
      "stateMutability": "view",
      "type": "function"
    },
    {
      "constant": false,
      "inputs": [
        {
          "name": "spender",
          "type": "address"
        },
        {
          "name": "subtractedValue",
          "type": "uint256"
        }
      ],
      "name": "decreaseAllowance",
      "outputs": [
        {
          "name": "",
          "type": "bool"
        }
      ],
      "payable": false,
      "stateMutability": "nonpayable",
      "type": "function"
    },
    {
      "constant": false,
      "inputs": [
        {
          "name": "recipient",
          "type": "address"
        },
        {
          "name": "amount",
          "type": "uint256"
        }
      ],
      "name": "transfer",
      "outputs": [
        {
          "name": "",
          "type": "bool"
        }
      ],
      "payable": false,
      "stateMutability": "nonpayable",
      "type": "function"
    },
    {
      "constant": true,
      "inputs": [
        {
          "name": "hash",
          "type": "bytes32"
        },
        {
          "name": "signature",
          "type": "bytes"
        }
      ],
      "name": "testRecover",
      "outputs": [
        {
          "name": "",
          "type": "address"
        }
      ],
      "payable": false,
      "stateMutability": "pure",
      "type": "function"
    },
    {
      "constant": true,
      "inputs": [
        {
          "name": "owner",
          "type": "address"
        },
        {
          "name": "spender",
          "type": "address"
        }
      ],
      "name": "allowance",
      "outputs": [
        {
          "name": "",
          "type": "uint256"
        }
      ],
      "payable": false,
      "stateMutability": "view",
      "type": "function"
    },
    {
      "constant": true,
      "inputs": [
        {
          "name": "_text",
          "type": "bytes"
        }
      ],
      "name": "testHash",
      "outputs": [
        {
          "name": "",
          "type": "bytes32"
        }
      ],
      "payable": false,
      "stateMutability": "pure",
      "type": "function"
    },
    {
      "constant": false,
      "inputs": [
        {
          "name": "newOwner",
          "type": "address"
        }
      ],
      "name": "transferOwnership",
      "outputs": [],
      "payable": false,
      "stateMutability": "nonpayable",
      "type": "function"
    },
    {
      "inputs": [
        {
          "name": "_name",
          "type": "string"
        },
        {
          "name": "_symbol",
          "type": "string"
        },
        {
          "name": "_decimal",
          "type": "uint8"
        }
      ],
      "payable": false,
      "stateMutability": "nonpayable",
      "type": "constructor"
    },
    {
      "anonymous": false,
      "inputs": [
        {
          "indexed": true,
          "name": "to",
          "type": "address"
        },
        {
          "indexed": false,
          "name": "amount",
          "type": "uint256"
        }
      ],
      "name": "Mint",
      "type": "event"
    },
    {
      "anonymous": false,
      "inputs": [
        {
          "indexed": true,
          "name": "from",
          "type": "address"
        },
        {
          "indexed": true,
          "name": "to",
          "type": "address"
        },
        {
          "indexed": false,
          "name": "value",
          "type": "uint256"
        }
      ],
      "name": "Transfer",
      "type": "event"
    },
    {
      "anonymous": false,
      "inputs": [
        {
          "indexed": true,
          "name": "owner",
          "type": "address"
        },
        {
          "indexed": true,
          "name": "spender",
          "type": "address"
        },
        {
          "indexed": false,
          "name": "value",
          "type": "uint256"
        }
      ],
      "name": "Approval",
      "type": "event"
    },
    {
      "anonymous": false,
      "inputs": [
        {
          "indexed": true,
          "name": "delegate",
          "type": "address"
        },
        {
          "indexed": true,
          "name": "from",
          "type": "address"
        },
        {
          "indexed": true,
          "name": "to",
          "type": "address"
        },
        {
          "indexed": false,
          "name": "value",
          "type": "uint256"
        }
      ],
      "name": "TransferPreSigned",
      "type": "event"
    },
    {
      "anonymous": false,
      "inputs": [
        {
          "indexed": true,
          "name": "previousOwner",
          "type": "address"
        },
        {
          "indexed": true,
          "name": "newOwner",
          "type": "address"
        }
      ],
      "name": "OwnershipTransferred",
      "type": "event"
    },
    {
      "constant": false,
      "inputs": [
        {
          "name": "_recipient",
          "type": "address"
        },
        {
          "name": "_amount",
          "type": "uint256"
        }
      ],
      "name": "mint",
      "outputs": [],
      "payable": true,
      "stateMutability": "payable",
      "type": "function"
    }
  ],
  "bytecode": "0x60806040523480156200001157600080fd5b50604051620024fc380380620024fc833981018060405260608110156200003757600080fd5b8101908080516401000000008111156200005057600080fd5b828101905060208101848111156200006757600080fd5b81518560018202830111640100000000821117156200008557600080fd5b50509291906020018051640100000000811115620000a257600080fd5b82810190506020810184811115620000b957600080fd5b8151856001820283011164010000000082111715620000d757600080fd5b505092919060200180519060200190929190505050828282336000806101000a81548173ffffffffffffffffffffffffffffffffffffffff021916908373ffffffffffffffffffffffffffffffffffffffff1602179055506000809054906101000a900473ffffffffffffffffffffffffffffffffffffffff1673ffffffffffffffffffffffffffffffffffffffff16600073ffffffffffffffffffffffffffffffffffffffff167f8be0079c531659141344cd1fd0a4f28419497f9722a3daafe3b4186f6b6457e060405160405180910390a38260059080519060200190620001c392919062000204565b508160069080519060200190620001dc92919062000204565b5080600760006101000a81548160ff021916908360ff160217905550505050505050620002b3565b828054600181600116156101000203166002900490600052602060002090601f016020900481019282601f106200024757805160ff191683800117855562000278565b8280016001018555821562000278579182015b82811115620002775782518255916020019190600101906200025a565b5b5090506200028791906200028b565b5090565b620002b091905b80821115620002ac57600081600090555060010162000292565b5090565b90565b61223980620002c36000396000f3fe60806040526004361061011f5760003560e01c8063715018a6116100a0578063a9059cbb11610064578063a9059cbb1461079d578063dbd381dd14610810578063dd62ed3e14610922578063e6029084146109a7578063f2fde38b14610a835761011f565b8063715018a6146105fd5780638da5cb5b146106145780638f32d59b1461066b57806395d89b411461069a578063a457c2d71461072a5761011f565b8063313ce567116100e7578063313ce56714610368578063395093511461039957806340c10f191461040c578063685e99601461045a57806370a08231146105985761011f565b806306fdde03146101245780630868fc24146101b4578063095ea7b31461023757806318160ddd146102aa57806323b872dd146102d5575b600080fd5b34801561013057600080fd5b50610139610ad4565b6040518080602001828103825283818151815260200191508051906020019080838360005b8381101561017957808201518184015260208101905061015e565b50505050905090810190601f1680156101a65780820380516001836020036101000a031916815260200191505b509250505060405180910390f35b3480156101c057600080fd5b50610221600480360360808110156101d757600080fd5b81019080803573ffffffffffffffffffffffffffffffffffffffff169060200190929190803590602001909291908035906020019092919080359060200190929190505050610b76565b6040518082815260200191505060405180910390f35b34801561024357600080fd5b506102906004803603604081101561025a57600080fd5b81019080803573ffffffffffffffffffffffffffffffffffffffff16906020019092919080359060200190929190505050610b8e565b604051808215151515815260200191505060405180910390f35b3480156102b657600080fd5b506102bf610ba5565b6040518082815260200191505060405180910390f35b3480156102e157600080fd5b5061034e600480360360608110156102f857600080fd5b81019080803573ffffffffffffffffffffffffffffffffffffffff169060200190929190803573ffffffffffffffffffffffffffffffffffffffff16906020019092919080359060200190929190505050610baf565b604051808215151515815260200191505060405180910390f35b34801561037457600080fd5b5061037d610c60565b604051808260ff1660ff16815260200191505060405180910390f35b3480156103a557600080fd5b506103f2600480360360408110156103bc57600080fd5b81019080803573ffffffffffffffffffffffffffffffffffffffff16906020019092919080359060200190929190505050610c77565b604051808215151515815260200191505060405180910390f35b6104586004803603604081101561042257600080fd5b81019080803573ffffffffffffffffffffffffffffffffffffffff16906020019092919080359060200190929190505050610d1c565b005b34801561046657600080fd5b5061057e600480360360c081101561047d57600080fd5b810190808035906020019064010000000081111561049a57600080fd5b8201836020820111156104ac57600080fd5b803590602001918460018302840111640100000000831117156104ce57600080fd5b91908080601f016020809104026020016040519081016040528093929190818152602001838380828437600081840152601f19601f820116905080830192505050505050509192919290803573ffffffffffffffffffffffffffffffffffffffff169060200190929190803573ffffffffffffffffffffffffffffffffffffffff169060200190929190803590602001909291908035906020019092919080359060200190929190505050610d2a565b604051808215151515815260200191505060405180910390f35b3480156105a457600080fd5b506105e7600480360360208110156105bb57600080fd5b81019080803573ffffffffffffffffffffffffffffffffffffffff1690602001909291905050506111aa565b6040518082815260200191505060405180910390f35b34801561060957600080fd5b506106126111f3565b005b34801561062057600080fd5b5061062961132c565b604051808273ffffffffffffffffffffffffffffffffffffffff1673ffffffffffffffffffffffffffffffffffffffff16815260200191505060405180910390f35b34801561067757600080fd5b50610680611355565b604051808215151515815260200191505060405180910390f35b3480156106a657600080fd5b506106af6113ac565b6040518080602001828103825283818151815260200191508051906020019080838360005b838110156106ef5780820151818401526020810190506106d4565b50505050905090810190601f16801561071c5780820380516001836020036101000a031916815260200191505b509250505060405180910390f35b34801561073657600080fd5b506107836004803603604081101561074d57600080fd5b81019080803573ffffffffffffffffffffffffffffffffffffffff1690602001909291908035906020019092919050505061144e565b604051808215151515815260200191505060405180910390f35b3480156107a957600080fd5b506107f6600480360360408110156107c057600080fd5b81019080803573ffffffffffffffffffffffffffffffffffffffff169060200190929190803590602001909291905050506114f3565b604051808215151515815260200191505060405180910390f35b34801561081c57600080fd5b506108e06004803603604081101561083357600080fd5b81019080803590602001909291908035906020019064010000000081111561085a57600080fd5b82018360208201111561086c57600080fd5b8035906020019184600183028401116401000000008311171561088e57600080fd5b91908080601f016020809104026020016040519081016040528093929190818152602001838380828437600081840152601f19601f82011690508083019250505050505050919291929050505061150a565b604051808273ffffffffffffffffffffffffffffffffffffffff1673ffffffffffffffffffffffffffffffffffffffff16815260200191505060405180910390f35b34801561092e57600080fd5b506109916004803603604081101561094557600080fd5b81019080803573ffffffffffffffffffffffffffffffffffffffff169060200190929190803573ffffffffffffffffffffffffffffffffffffffff169060200190929190505050611527565b6040518082815260200191505060405180910390f35b3480156109b357600080fd5b50610a6d600480360360208110156109ca57600080fd5b81019080803590602001906401000000008111156109e757600080fd5b8201836020820111156109f957600080fd5b80359060200191846001830284011164010000000083111715610a1b57600080fd5b91908080601f016020809104026020016040519081016040528093929190818152602001838380828437600081840152601f19601f8201169050808301925050505050505091929192905050506115ae565b6040518082815260200191505060405180910390f35b348015610a8f57600080fd5b50610ad260048036036020811015610aa657600080fd5b81019080803573ffffffffffffffffffffffffffffffffffffffff16906020019092919050505061162e565b005b606060058054600181600116156101000203166002900480601f016020809104026020016040519081016040528092919081815260200182805460018160011615610100020316600290048015610b6c5780601f10610b4157610100808354040283529160200191610b6c565b820191906000526020600020905b815481529060010190602001808311610b4f57829003601f168201915b5050505050905090565b6000610b84858585856116b4565b9050949350505050565b6000610b9b338484611733565b6001905092915050565b6000600354905090565b6000610bbc84848461192a565b610c558433610c5085600260008a73ffffffffffffffffffffffffffffffffffffffff1673ffffffffffffffffffffffffffffffffffffffff16815260200190815260200160002060003373ffffffffffffffffffffffffffffffffffffffff1673ffffffffffffffffffffffffffffffffffffffff16815260200190815260200160002054611bca90919063ffffffff16565b611733565b600190509392505050565b6000600760009054906101000a900460ff16905090565b6000610d123384610d0d85600260003373ffffffffffffffffffffffffffffffffffffffff1673ffffffffffffffffffffffffffffffffffffffff16815260200190815260200160002060008973ffffffffffffffffffffffffffffffffffffffff1673ffffffffffffffffffffffffffffffffffffffff16815260200190815260200160002054611c5390919063ffffffff16565b611733565b6001905092915050565b610d268282611cdb565b5050565b60008073ffffffffffffffffffffffffffffffffffffffff168573ffffffffffffffffffffffffffffffffffffffff161415610db1576040517f08c379a000000000000000000000000000000000000000000000000000000000815260040180806020018281038252602181526020018061215c6021913960400191505060405180910390fd5b600015156004886040518082805190602001908083835b60208310610deb5780518252602082019150602081019050602083039250610dc8565b6001836020036101000a038019825116818451168082178552505050505050905001915050908152602001604051809103902060009054906101000a900460ff16151514610ea1576040517f08c379a000000000000000000000000000000000000000000000000000000000815260040180806020018281038252601c8152602001807f7472616e73616374696f6e20616c726561647920636f6d706c6574650000000081525060200191505060405180910390fd5b6000610eaf868686866116b4565b9050610eba81611e98565b90506000610ed18983611ef090919063ffffffff16565b90508773ffffffffffffffffffffffffffffffffffffffff168173ffffffffffffffffffffffffffffffffffffffff1614610f74576040517f08c379a00000000000000000000000000000000000000000000000000000000081526004018080602001828103825260118152602001807f696e76616c6964207369676e617475726500000000000000000000000000000081525060200191505060405180910390fd5b6000610f898688611c5390919063ffffffff16565b9050610f94826111aa565b811115611009576040517f08c379a00000000000000000000000000000000000000000000000000000000081526004018080602001828103825260128152602001807f62616c616e6365206e6f7420656e6f756768000000000000000000000000000081525060200191505060405180910390fd5b61101482898961192a565b61101f82338861192a565b600160048b6040518082805190602001908083835b602083106110575780518252602082019150602081019050602083039250611034565b6001836020036101000a038019825116818451168082178552505050505050905001915050908152602001604051809103902060006101000a81548160ff0219169083151502179055508773ffffffffffffffffffffffffffffffffffffffff168273ffffffffffffffffffffffffffffffffffffffff163373ffffffffffffffffffffffffffffffffffffffff167f339e733e8f3d5b80a99579a1bd0d885dd3d96783439f354abebcd98f88b6462c8a6040518082815260200191505060405180910390a43373ffffffffffffffffffffffffffffffffffffffff168273ffffffffffffffffffffffffffffffffffffffff163373ffffffffffffffffffffffffffffffffffffffff167f339e733e8f3d5b80a99579a1bd0d885dd3d96783439f354abebcd98f88b6462c896040518082815260200191505060405180910390a4600193505050509695505050505050565b6000600160008373ffffffffffffffffffffffffffffffffffffffff1673ffffffffffffffffffffffffffffffffffffffff168152602001908152602001600020549050919050565b6111fb611355565b61126d576040517f08c379a00000000000000000000000000000000000000000000000000000000081526004018080602001828103825260208152602001807f4f776e61626c653a2063616c6c6572206973206e6f7420746865206f776e657281525060200191505060405180910390fd5b600073ffffffffffffffffffffffffffffffffffffffff166000809054906101000a900473ffffffffffffffffffffffffffffffffffffffff1673ffffffffffffffffffffffffffffffffffffffff167f8be0079c531659141344cd1fd0a4f28419497f9722a3daafe3b4186f6b6457e060405160405180910390a360008060006101000a81548173ffffffffffffffffffffffffffffffffffffffff021916908373ffffffffffffffffffffffffffffffffffffffff160217905550565b60008060009054906101000a900473ffffffffffffffffffffffffffffffffffffffff16905090565b60008060009054906101000a900473ffffffffffffffffffffffffffffffffffffffff1673ffffffffffffffffffffffffffffffffffffffff163373ffffffffffffffffffffffffffffffffffffffff1614905090565b606060068054600181600116156101000203166002900480601f0160208091040260200160405190810160405280929190818152602001828054600181600116156101000203166002900480156114445780601f1061141957610100808354040283529160200191611444565b820191906000526020600020905b81548152906001019060200180831161142757829003601f168201915b5050505050905090565b60006114e933846114e485600260003373ffffffffffffffffffffffffffffffffffffffff1673ffffffffffffffffffffffffffffffffffffffff16815260200190815260200160002060008973ffffffffffffffffffffffffffffffffffffffff1673ffffffffffffffffffffffffffffffffffffffff16815260200190815260200160002054611bca90919063ffffffff16565b611733565b6001905092915050565b600061150033848461192a565b6001905092915050565b600061151f8284611ef090919063ffffffff16565b905092915050565b6000600260008473ffffffffffffffffffffffffffffffffffffffff1673ffffffffffffffffffffffffffffffffffffffff16815260200190815260200160002060008373ffffffffffffffffffffffffffffffffffffffff1673ffffffffffffffffffffffffffffffffffffffff16815260200190815260200160002054905092915050565b600080826040516020018082805190602001908083835b602083106115e857805182526020820191506020810190506020830392506115c5565b6001836020036101000a03801982511681845116808217855250505050505090500191505060405160208183030381529060405280519060200120905080915050919050565b611636611355565b6116a8576040517f08c379a00000000000000000000000000000000000000000000000000000000081526004018080602001828103825260208152602001807f4f776e61626c653a2063616c6c6572206973206e6f7420746865206f776e657281525060200191505060405180910390fd5b6116b181611ff4565b50565b60008085858585604051602001808573ffffffffffffffffffffffffffffffffffffffff1673ffffffffffffffffffffffffffffffffffffffff1660601b815260140184815260200183815260200182815260200194505050505060405160208183030381529060405280519060200120905080915050949350505050565b600073ffffffffffffffffffffffffffffffffffffffff168373ffffffffffffffffffffffffffffffffffffffff1614156117b9576040517f08c379a00000000000000000000000000000000000000000000000000000000081526004018080602001828103825260248152602001806121ea6024913960400191505060405180910390fd5b600073ffffffffffffffffffffffffffffffffffffffff168273ffffffffffffffffffffffffffffffffffffffff16141561183f576040517f08c379a00000000000000000000000000000000000000000000000000000000081526004018080602001828103825260228152602001806121a36022913960400191505060405180910390fd5b80600260008573ffffffffffffffffffffffffffffffffffffffff1673ffffffffffffffffffffffffffffffffffffffff16815260200190815260200160002060008473ffffffffffffffffffffffffffffffffffffffff1673ffffffffffffffffffffffffffffffffffffffff168152602001908152602001600020819055508173ffffffffffffffffffffffffffffffffffffffff168373ffffffffffffffffffffffffffffffffffffffff167f8c5be1e5ebec7d5bd14f71427d1e84f3dd0314c0f7b2291e5b200ac8c7c3b925836040518082815260200191505060405180910390a3505050565b600073ffffffffffffffffffffffffffffffffffffffff168373ffffffffffffffffffffffffffffffffffffffff1614156119b0576040517f08c379a00000000000000000000000000000000000000000000000000000000081526004018080602001828103825260258152602001806121c56025913960400191505060405180910390fd5b600073ffffffffffffffffffffffffffffffffffffffff168273ffffffffffffffffffffffffffffffffffffffff161415611a36576040517f08c379a00000000000000000000000000000000000000000000000000000000081526004018080602001828103825260238152602001806121396023913960400191505060405180910390fd5b611a8881600160008673ffffffffffffffffffffffffffffffffffffffff1673ffffffffffffffffffffffffffffffffffffffff16815260200190815260200160002054611bca90919063ffffffff16565b600160008573ffffffffffffffffffffffffffffffffffffffff1673ffffffffffffffffffffffffffffffffffffffff16815260200190815260200160002081905550611b1d81600160008573ffffffffffffffffffffffffffffffffffffffff1673ffffffffffffffffffffffffffffffffffffffff16815260200190815260200160002054611c5390919063ffffffff16565b600160008473ffffffffffffffffffffffffffffffffffffffff1673ffffffffffffffffffffffffffffffffffffffff168152602001908152602001600020819055508173ffffffffffffffffffffffffffffffffffffffff168373ffffffffffffffffffffffffffffffffffffffff167fddf252ad1be2c89b69c2b068fc378daa952ba7f163c4a11628f55a4df523b3ef836040518082815260200191505060405180910390a3505050565b600082821115611c42576040517f08c379a000000000000000000000000000000000000000000000000000000000815260040180806020018281038252601e8152602001807f536166654d6174683a207375627472616374696f6e206f766572666c6f77000081525060200191505060405180910390fd5b600082840390508091505092915050565b600080828401905083811015611cd1576040517f08c379a000000000000000000000000000000000000000000000000000000000815260040180806020018281038252601b8152602001807f536166654d6174683a206164646974696f6e206f766572666c6f77000000000081525060200191505060405180910390fd5b8091505092915050565b600073ffffffffffffffffffffffffffffffffffffffff168273ffffffffffffffffffffffffffffffffffffffff161415611d7e576040517f08c379a000000000000000000000000000000000000000000000000000000000815260040180806020018281038252601f8152602001807f45524332303a206d696e7420746f20746865207a65726f20616464726573730081525060200191505060405180910390fd5b611d9381600354611c5390919063ffffffff16565b600381905550611deb81600160008573ffffffffffffffffffffffffffffffffffffffff1673ffffffffffffffffffffffffffffffffffffffff16815260200190815260200160002054611c5390919063ffffffff16565b600160008473ffffffffffffffffffffffffffffffffffffffff1673ffffffffffffffffffffffffffffffffffffffff168152602001908152602001600020819055508173ffffffffffffffffffffffffffffffffffffffff16600073ffffffffffffffffffffffffffffffffffffffff167fddf252ad1be2c89b69c2b068fc378daa952ba7f163c4a11628f55a4df523b3ef836040518082815260200191505060405180910390a35050565b60008160405160200180807f19457468657265756d205369676e6564204d6573736167653a0a333200000000815250601c01828152602001915050604051602081830303815290604052805190602001209050919050565b60006041825114611f045760009050611fee565b60008060006020850151925060408501519150606085015160001a90507f7fffffffffffffffffffffffffffffff5d576e7357a4501ddfe92f46681b20a08260001c1115611f585760009350505050611fee565b601b8160ff1614158015611f705750601c8160ff1614155b15611f815760009350505050611fee565b60018682858560405160008152602001604052604051808581526020018460ff1660ff1681526020018381526020018281526020019450505050506020604051602081039080840390855afa158015611fde573d6000803e3d6000fd5b5050506020604051035193505050505b92915050565b600073ffffffffffffffffffffffffffffffffffffffff168173ffffffffffffffffffffffffffffffffffffffff16141561207a576040517f08c379a000000000000000000000000000000000000000000000000000000000815260040180806020018281038252602681526020018061217d6026913960400191505060405180910390fd5b8073ffffffffffffffffffffffffffffffffffffffff166000809054906101000a900473ffffffffffffffffffffffffffffffffffffffff1673ffffffffffffffffffffffffffffffffffffffff167f8be0079c531659141344cd1fd0a4f28419497f9722a3daafe3b4186f6b6457e060405160405180910390a3806000806101000a81548173ffffffffffffffffffffffffffffffffffffffff021916908373ffffffffffffffffffffffffffffffffffffffff1602179055505056fe45524332303a207472616e7366657220746f20746865207a65726f206164647265737364657374696e6174696f6e2061646472657373206d757374206e6f74207a65726f4f776e61626c653a206e6577206f776e657220697320746865207a65726f206164647265737345524332303a20617070726f766520746f20746865207a65726f206164647265737345524332303a207472616e736665722066726f6d20746865207a65726f206164647265737345524332303a20617070726f76652066726f6d20746865207a65726f2061646472657373a165627a7a723058203e20fe48fbf449c76437954904d1867039232bffd9f9982ec304c2268057aa0e0029",
  "source": "pragma solidity >=0.4.21 <0.6.0;\r\n\r\nimport \"openzeppelin-solidity/contracts/token/ERC20/ERC20Detailed.sol\";\r\nimport \"openzeppelin-solidity/contracts/ownership/Ownable.sol\";\r\nimport \"openzeppelin-solidity/contracts/math/SafeMath.sol\";\r\nimport \"./ERC865.sol\";\r\n\r\ncontract TCCoin is Ownable, ERC865, ERC20Detailed {\r\n\r\n    using SafeMath for uint;\r\n\r\n    event Mint(address indexed to, uint amount);\r\n\r\n    constructor (string memory _name, string memory _symbol, uint8 _decimal)\r\n        ERC20Detailed(_name, _symbol, _decimal) public {\r\n        \r\n    }\r\n\r\n    function mint(address _recipient, uint256 _amount) public payable {\r\n        _mint(_recipient, _amount);\r\n    }\r\n}",
  "sourcePath": "D:/node project/feeless-poc/contracts/TCCoin.sol",
  "compiler": {
    "name": "solc",
    "version": "0.5.8+commit.23d335f2.Emscripten.clang"
  },
  "schemaVersion": "3.0.10",
  "updatedAt": "2019-08-11T11:21:32.161Z",
  "devdoc": {
    "methods": {
      "allowance(address,address)": {
        "details": "See `IERC20.allowance`."
      },
      "approve(address,uint256)": {
        "details": "See `IERC20.approve`.     * Requirements:     * - `spender` cannot be the zero address."
      },
      "balanceOf(address)": {
        "details": "See `IERC20.balanceOf`."
      },
      "decimals()": {
        "details": "Returns the number of decimals used to get its user representation. For example, if `decimals` equals `2`, a balance of `505` tokens should be displayed to a user as `5,05` (`505 / 10 ** 2`).     * Tokens usually opt for a value of 18, imitating the relationship between Ether and Wei.     * > Note that this information is only used for _display_ purposes: it in no way affects any of the arithmetic of the contract, including `IERC20.balanceOf` and `IERC20.transfer`."
      },
      "decreaseAllowance(address,uint256)": {
        "details": "Atomically decreases the allowance granted to `spender` by the caller.     * This is an alternative to `approve` that can be used as a mitigation for problems described in `IERC20.approve`.     * Emits an `Approval` event indicating the updated allowance.     * Requirements:     * - `spender` cannot be the zero address. - `spender` must have allowance for the caller of at least `subtractedValue`."
      },
      "increaseAllowance(address,uint256)": {
        "details": "Atomically increases the allowance granted to `spender` by the caller.     * This is an alternative to `approve` that can be used as a mitigation for problems described in `IERC20.approve`.     * Emits an `Approval` event indicating the updated allowance.     * Requirements:     * - `spender` cannot be the zero address."
      },
      "isOwner()": {
        "details": "Returns true if the caller is the current owner."
      },
      "name()": {
        "details": "Returns the name of the token."
      },
      "owner()": {
        "details": "Returns the address of the current owner."
      },
      "renounceOwnership()": {
        "details": "Leaves the contract without owner. It will not be possible to call `onlyOwner` functions anymore. Can only be called by the current owner.     * > Note: Renouncing ownership will leave the contract without an owner, thereby removing any functionality that is only available to the owner."
      },
      "symbol()": {
        "details": "Returns the symbol of the token, usually a shorter version of the name."
      },
      "totalSupply()": {
        "details": "See `IERC20.totalSupply`."
      },
      "transfer(address,uint256)": {
        "details": "See `IERC20.transfer`.     * Requirements:     * - `recipient` cannot be the zero address. - the caller must have a balance of at least `amount`."
      },
      "transferFrom(address,address,uint256)": {
        "details": "See `IERC20.transferFrom`.     * Emits an `Approval` event indicating the updated allowance. This is not required by the EIP. See the note at the beginning of `ERC20`;     * Requirements: - `sender` and `recipient` cannot be the zero address. - `sender` must have a balance of at least `value`. - the caller must have allowance for `sender`'s tokens of at least `amount`."
      },
      "transferOwnership(address)": {
        "details": "Transfers ownership of the contract to a new account (`newOwner`). Can only be called by the current owner."
      },
      "transferPreSigned(bytes,address,address,uint256,uint256,uint256)": {
        "details": "Allows a delegate to submit a transaction on behalf of the token holder.\r",
        "params": {
          "_fee": "The amount of tokens paid to the delegate for gas costs.\r",
          "_nonce": "The transaction number.\r",
          "_signature": "The signature, issued by the token holder.\r",
          "_to": "The recipient's address.\r",
          "_value": "The amount of tokens to be transferred.\r"
        }
      }
    }
  },
  "userdoc": {
    "methods": {}
  }
}