{
  "contractName": "Wallet",
  "abi": [
    {
      "constant": true,
      "inputs": [
        {
          "name": "_actor",
          "type": "address"
        }
      ],
      "name": "isOwner",
      "outputs": [
        {
          "name": "",
          "type": "bool"
        }
      ],
      "payable": false,
      "stateMutability": "view",
      "type": "function"
    },
    {
      "constant": true,
      "inputs": [],
      "name": "registry",
      "outputs": [
        {
          "name": "",
          "type": "address"
        }
      ],
      "payable": false,
      "stateMutability": "view",
      "type": "function"
    },
    {
      "constant": true,
      "inputs": [],
      "name": "owner",
      "outputs": [
        {
          "name": "",
          "type": "address"
        }
      ],
      "payable": false,
      "stateMutability": "view",
      "type": "function"
    },
    {
      "inputs": [
        {
          "name": "_newOwner",
          "type": "address"
        }
      ],
      "payable": false,
      "stateMutability": "nonpayable",
      "type": "constructor"
    },
    {
      "payable": true,
      "stateMutability": "payable",
      "type": "fallback"
    },
    {
      "anonymous": false,
      "inputs": [
        {
          "indexed": true,
          "name": "from",
          "type": "address"
        },
        {
          "indexed": false,
          "name": "amount",
          "type": "uint256"
        }
      ],
      "name": "Deposit",
      "type": "event"
    },
    {
      "anonymous": false,
      "inputs": [
        {
          "indexed": true,
          "name": "to",
          "type": "address"
        },
        {
          "indexed": false,
          "name": "amount",
          "type": "uint256"
        }
      ],
      "name": "Transfer",
      "type": "event"
    },
    {
      "anonymous": false,
      "inputs": [
        {
          "indexed": true,
          "name": "previousOwner",
          "type": "address"
        },
        {
          "indexed": true,
          "name": "newOwner",
          "type": "address"
        }
      ],
      "name": "OwnershipTransferred",
      "type": "event"
    },
    {
      "constant": false,
      "inputs": [
        {
          "name": "_registryAddress",
          "type": "address"
        }
      ],
      "name": "setRegistryAddress",
      "outputs": [],
      "payable": false,
      "stateMutability": "nonpayable",
      "type": "function"
    },
    {
      "constant": true,
      "inputs": [
        {
          "name": "_registryAddress",
          "type": "address"
        },
        {
          "name": "_nonce",
          "type": "uint256"
        }
      ],
      "name": "createPreAuthSetRegistryAddress",
      "outputs": [
        {
          "name": "",
          "type": "bytes32"
        }
      ],
      "payable": false,
      "stateMutability": "pure",
      "type": "function"
    },
    {
      "constant": false,
      "inputs": [
        {
          "name": "_signature",
          "type": "bytes"
        },
        {
          "name": "_registryAddress",
          "type": "address"
        },
        {
          "name": "_nonce",
          "type": "uint256"
        }
      ],
      "name": "preAuthSetRegistryAddress",
      "outputs": [],
      "payable": false,
      "stateMutability": "nonpayable",
      "type": "function"
    },
    {
      "constant": false,
      "inputs": [
        {
          "name": "_payee",
          "type": "address"
        },
        {
          "name": "_amount",
          "type": "uint256"
        }
      ],
      "name": "transfer",
      "outputs": [],
      "payable": false,
      "stateMutability": "nonpayable",
      "type": "function"
    },
    {
      "constant": false,
      "inputs": [
        {
          "name": "_tokenAddr",
          "type": "address"
        },
        {
          "name": "_payee",
          "type": "address"
        },
        {
          "name": "_amount",
          "type": "uint256"
        }
      ],
      "name": "transferToken",
      "outputs": [],
      "payable": false,
      "stateMutability": "nonpayable",
      "type": "function"
    },
    {
      "constant": true,
      "inputs": [
        {
          "name": "_tokenAddr",
          "type": "address"
        },
        {
          "name": "_payee",
          "type": "address"
        },
        {
          "name": "_amount",
          "type": "uint256"
        },
        {
          "name": "_fee",
          "type": "uint256"
        },
        {
          "name": "_nonce",
          "type": "uint256"
        }
      ],
      "name": "createPreAuthTransferToken",
      "outputs": [
        {
          "name": "",
          "type": "bytes32"
        }
      ],
      "payable": false,
      "stateMutability": "pure",
      "type": "function"
    },
    {
      "constant": false,
      "inputs": [
        {
          "name": "_signature",
          "type": "bytes"
        },
        {
          "name": "_tokenAddr",
          "type": "address"
        },
        {
          "name": "_payee",
          "type": "address"
        },
        {
          "name": "_amount",
          "type": "uint256"
        },
        {
          "name": "_fee",
          "type": "uint256"
        },
        {
          "name": "_nonce",
          "type": "uint256"
        }
      ],
      "name": "preAuthTransferToken",
      "outputs": [],
      "payable": false,
      "stateMutability": "nonpayable",
      "type": "function"
    },
    {
      "constant": false,
      "inputs": [
        {
          "name": "recipient",
          "type": "address"
        }
      ],
      "name": "destroy",
      "outputs": [],
      "payable": false,
      "stateMutability": "nonpayable",
      "type": "function"
    }
  ],
  "bytecode": "0x608060405234801561001057600080fd5b50604051602080611b198339810180604052602081101561003057600080fd5b81019080805190602001909291905050506100508161005660201b60201c565b50610114565b8073ffffffffffffffffffffffffffffffffffffffff166000809054906101000a900473ffffffffffffffffffffffffffffffffffffffff1673ffffffffffffffffffffffffffffffffffffffff167f8be0079c531659141344cd1fd0a4f28419497f9722a3daafe3b4186f6b6457e060405160405180910390a3806000806101000a81548173ffffffffffffffffffffffffffffffffffffffff021916908373ffffffffffffffffffffffffffffffffffffffff16021790555050565b6119f6806101236000396000f3fe60806040526004361061009b5760003560e01c80636a61af60116100645780636a61af60146103a95780637b103999146104cf5780638da5cb5b14610526578063a9059cbb1461057d578063ab7b4993146105d8578063f5537ede146106295761009b565b8062f55d9d146100eb5780630bfa2ad41461013c5780632f54bf6e1461022e578063570597e81461029757806364df340b1461033a575b3373ffffffffffffffffffffffffffffffffffffffff167fe1fffcc4923d04b559f4d29a8bfc6cda04eb5b0d3c460751c2402c5c5cc9109c346040518082815260200191505060405180910390a2005b3480156100f757600080fd5b5061013a6004803603602081101561010e57600080fd5b81019080803573ffffffffffffffffffffffffffffffffffffffff1690602001909291905050506106a4565b005b34801561014857600080fd5b5061022c6004803603606081101561015f57600080fd5b810190808035906020019064010000000081111561017c57600080fd5b82018360208201111561018e57600080fd5b803590602001918460018302840111640100000000831117156101b057600080fd5b91908080601f016020809104026020016040519081016040528093929190818152602001838380828437600081840152601f19601f820116905080830192505050505050509192919290803573ffffffffffffffffffffffffffffffffffffffff16906020019092919080359060200190929190505050610739565b005b34801561023a57600080fd5b5061027d6004803603602081101561025157600080fd5b81019080803573ffffffffffffffffffffffffffffffffffffffff1690602001909291905050506109ec565b604051808215151515815260200191505060405180910390f35b3480156102a357600080fd5b50610324600480360360a08110156102ba57600080fd5b81019080803573ffffffffffffffffffffffffffffffffffffffff169060200190929190803573ffffffffffffffffffffffffffffffffffffffff169060200190929190803590602001909291908035906020019092919080359060200190929190505050610bd8565b6040518082815260200191505060405180910390f35b34801561034657600080fd5b506103936004803603604081101561035d57600080fd5b81019080803573ffffffffffffffffffffffffffffffffffffffff16906020019092919080359060200190929190505050610c8f565b6040518082815260200191505060405180910390f35b3480156103b557600080fd5b506104cd600480360360c08110156103cc57600080fd5b81019080803590602001906401000000008111156103e957600080fd5b8201836020820111156103fb57600080fd5b8035906020019184600183028401116401000000008311171561041d57600080fd5b91908080601f016020809104026020016040519081016040528093929190818152602001838380828437600081840152601f19601f820116905080830192505050505050509192919290803573ffffffffffffffffffffffffffffffffffffffff169060200190929190803573ffffffffffffffffffffffffffffffffffffffff169060200190929190803590602001909291908035906020019092919080359060200190929190505050610cfc565b005b3480156104db57600080fd5b506104e461127d565b604051808273ffffffffffffffffffffffffffffffffffffffff1673ffffffffffffffffffffffffffffffffffffffff16815260200191505060405180910390f35b34801561053257600080fd5b5061053b6112a7565b604051808273ffffffffffffffffffffffffffffffffffffffff1673ffffffffffffffffffffffffffffffffffffffff16815260200191505060405180910390f35b34801561058957600080fd5b506105d6600480360360408110156105a057600080fd5b81019080803573ffffffffffffffffffffffffffffffffffffffff169060200190929190803590602001909291905050506112d0565b005b3480156105e457600080fd5b50610627600480360360208110156105fb57600080fd5b81019080803573ffffffffffffffffffffffffffffffffffffffff16906020019092919050505061135b565b005b34801561063557600080fd5b506106a26004803603606081101561064c57600080fd5b81019080803573ffffffffffffffffffffffffffffffffffffffff169060200190929190803573ffffffffffffffffffffffffffffffffffffffff169060200190929190803590602001909291905050506113e4565b005b336106ae816109ec565b610720576040517f08c379a00000000000000000000000000000000000000000000000000000000081526004018080602001828103825260208152602001807f4f776e61626c653a2063616c6c6572206973206e6f7420746865206f776e657281525060200191505060405180910390fd5b8173ffffffffffffffffffffffffffffffffffffffff16ff5b600073ffffffffffffffffffffffffffffffffffffffff168273ffffffffffffffffffffffffffffffffffffffff1614156107bf576040517f08c379a00000000000000000000000000000000000000000000000000000000081526004018080602001828103825260218152602001806119aa6021913960400191505060405180910390fd5b600015156002846040518082805190602001908083835b602083106107f957805182526020820191506020810190506020830392506107d6565b6001836020036101000a038019825116818451168082178552505050505050905001915050908152602001604051809103902060009054906101000a900460ff161515146108af576040517f08c379a000000000000000000000000000000000000000000000000000000000815260040180806020018281038252601c8152602001807f7472616e73616374696f6e20616c726561647920636f6d706c6574650000000081525060200191505060405180910390fd5b60006108bb8383610c8f565b90506108c68161165c565b905060006108dd85836116b490919063ffffffff16565b90506108e8816109ec565b61095a576040517f08c379a00000000000000000000000000000000000000000000000000000000081526004018080602001828103825260118152602001807f696e76616c6964207369676e617475726500000000000000000000000000000081525060200191505060405180910390fd5b610963846117b8565b60016002866040518082805190602001908083835b6020831061099b5780518252602082019150602081019050602083039250610978565b6001836020036101000a038019825116818451168082178552505050505050905001915050908152602001604051809103902060006101000a81548160ff0219169083151502179055505050505050565b60008073ffffffffffffffffffffffffffffffffffffffff16600160009054906101000a900473ffffffffffffffffffffffffffffffffffffffff1673ffffffffffffffffffffffffffffffffffffffff161415610a9b576000809054906101000a900473ffffffffffffffffffffffffffffffffffffffff1673ffffffffffffffffffffffffffffffffffffffff168273ffffffffffffffffffffffffffffffffffffffff16149050610bd3565b6000600160009054906101000a900473ffffffffffffffffffffffffffffffffffffffff1690508073ffffffffffffffffffffffffffffffffffffffff1663c25f77186000809054906101000a900473ffffffffffffffffffffffffffffffffffffffff16856040518363ffffffff1660e01b8152600401808373ffffffffffffffffffffffffffffffffffffffff1673ffffffffffffffffffffffffffffffffffffffff1681526020018273ffffffffffffffffffffffffffffffffffffffff1673ffffffffffffffffffffffffffffffffffffffff1681526020019250505060206040518083038186803b158015610b9457600080fd5b505afa158015610ba8573d6000803e3d6000fd5b505050506040513d6020811015610bbe57600080fd5b81019080805190602001909291905050509150505b919050565b6000808686868686604051602001808673ffffffffffffffffffffffffffffffffffffffff1673ffffffffffffffffffffffffffffffffffffffff1660601b81526014018573ffffffffffffffffffffffffffffffffffffffff1673ffffffffffffffffffffffffffffffffffffffff1660601b8152601401848152602001838152602001828152602001955050505050506040516020818303038152906040528051906020012090508091505095945050505050565b6000808383604051602001808373ffffffffffffffffffffffffffffffffffffffff1673ffffffffffffffffffffffffffffffffffffffff1660601b8152601401828152602001925050506040516020818303038152906040528051906020012090508091505092915050565b600073ffffffffffffffffffffffffffffffffffffffff168473ffffffffffffffffffffffffffffffffffffffff161415610d82576040517f08c379a00000000000000000000000000000000000000000000000000000000081526004018080602001828103825260218152602001806119aa6021913960400191505060405180910390fd5b600015156002876040518082805190602001908083835b60208310610dbc5780518252602082019150602081019050602083039250610d99565b6001836020036101000a038019825116818451168082178552505050505050905001915050908152602001604051809103902060009054906101000a900460ff16151514610e72576040517f08c379a000000000000000000000000000000000000000000000000000000000815260040180806020018281038252601c8152602001807f7472616e73616374696f6e20616c726561647920636f6d706c6574650000000081525060200191505060405180910390fd5b6000610e818686868686610bd8565b9050610e8c8161165c565b90506000610ea388836116b490919063ffffffff16565b9050610eae816109ec565b610f20576040517f08c379a00000000000000000000000000000000000000000000000000000000081526004018080602001828103825260118152602001807f696e76616c6964207369676e617475726500000000000000000000000000000081525060200191505060405180910390fd5b6000610f3585876117fc90919063ffffffff16565b905060008890508073ffffffffffffffffffffffffffffffffffffffff166370a08231306040518263ffffffff1660e01b8152600401808273ffffffffffffffffffffffffffffffffffffffff1673ffffffffffffffffffffffffffffffffffffffff16815260200191505060206040518083038186803b158015610fb957600080fd5b505afa158015610fcd573d6000803e3d6000fd5b505050506040513d6020811015610fe357600080fd5b8101908080519060200190929190505050821115611069576040517f08c379a00000000000000000000000000000000000000000000000000000000081526004018080602001828103825260128152602001807f62616c616e6365206e6f7420656e6f756768000000000000000000000000000081525060200191505060405180910390fd5b8073ffffffffffffffffffffffffffffffffffffffff1663a9059cbb89896040518363ffffffff1660e01b8152600401808373ffffffffffffffffffffffffffffffffffffffff1673ffffffffffffffffffffffffffffffffffffffff16815260200182815260200192505050602060405180830381600087803b1580156110f057600080fd5b505af1158015611104573d6000803e3d6000fd5b505050506040513d602081101561111a57600080fd5b8101908080519060200190929190505050508073ffffffffffffffffffffffffffffffffffffffff1663a9059cbb33886040518363ffffffff1660e01b8152600401808373ffffffffffffffffffffffffffffffffffffffff1673ffffffffffffffffffffffffffffffffffffffff16815260200182815260200192505050602060405180830381600087803b1580156111b357600080fd5b505af11580156111c7573d6000803e3d6000fd5b505050506040513d60208110156111dd57600080fd5b810190808051906020019092919050505050600160028b6040518082805190602001908083835b602083106112275780518252602082019150602081019050602083039250611204565b6001836020036101000a038019825116818451168082178552505050505050905001915050908152602001604051809103902060006101000a81548160ff02191690831515021790555050505050505050505050565b6000600160009054906101000a900473ffffffffffffffffffffffffffffffffffffffff16905090565b60008060009054906101000a900473ffffffffffffffffffffffffffffffffffffffff16905090565b336112da816109ec565b61134c576040517f08c379a00000000000000000000000000000000000000000000000000000000081526004018080602001828103825260208152602001807f4f776e61626c653a2063616c6c6572206973206e6f7420746865206f776e657281525060200191505060405180910390fd5b6113568383611884565b505050565b33611365816109ec565b6113d7576040517f08c379a00000000000000000000000000000000000000000000000000000000081526004018080602001828103825260208152602001807f4f776e61626c653a2063616c6c6572206973206e6f7420746865206f776e657281525060200191505060405180910390fd5b6113e0826117b8565b5050565b336113ee816109ec565b611460576040517f08c379a00000000000000000000000000000000000000000000000000000000081526004018080602001828103825260208152602001807f4f776e61626c653a2063616c6c6572206973206e6f7420746865206f776e657281525060200191505060405180910390fd5b6000849050828173ffffffffffffffffffffffffffffffffffffffff166370a08231306040518263ffffffff1660e01b8152600401808273ffffffffffffffffffffffffffffffffffffffff1673ffffffffffffffffffffffffffffffffffffffff16815260200191505060206040518083038186803b1580156114e357600080fd5b505afa1580156114f7573d6000803e3d6000fd5b505050506040513d602081101561150d57600080fd5b81019080805190602001909291905050501015611592576040517f08c379a00000000000000000000000000000000000000000000000000000000081526004018080602001828103825260108152602001807f6e6f7420656e6f75676820746f6b656e0000000000000000000000000000000081525060200191505060405180910390fd5b8073ffffffffffffffffffffffffffffffffffffffff1663a9059cbb85856040518363ffffffff1660e01b8152600401808373ffffffffffffffffffffffffffffffffffffffff1673ffffffffffffffffffffffffffffffffffffffff16815260200182815260200192505050602060405180830381600087803b15801561161957600080fd5b505af115801561162d573d6000803e3d6000fd5b505050506040513d602081101561164357600080fd5b8101908080519060200190929190505050505050505050565b60008160405160200180807f19457468657265756d205369676e6564204d6573736167653a0a333200000000815250601c01828152602001915050604051602081830303815290604052805190602001209050919050565b600060418251146116c857600090506117b2565b60008060006020850151925060408501519150606085015160001a90507f7fffffffffffffffffffffffffffffff5d576e7357a4501ddfe92f46681b20a08260001c111561171c57600093505050506117b2565b601b8160ff16141580156117345750601c8160ff1614155b1561174557600093505050506117b2565b60018682858560405160008152602001604052604051808581526020018460ff1660ff1681526020018381526020018281526020019450505050506020604051602081039080840390855afa1580156117a2573d6000803e3d6000fd5b5050506020604051035193505050505b92915050565b80600160006101000a81548173ffffffffffffffffffffffffffffffffffffffff021916908373ffffffffffffffffffffffffffffffffffffffff16021790555050565b60008082840190508381101561187a576040517f08c379a000000000000000000000000000000000000000000000000000000000815260040180806020018281038252601b8152602001807f536166654d6174683a206164646974696f6e206f766572666c6f77000000000081525060200191505060405180910390fd5b8091505092915050565b3073ffffffffffffffffffffffffffffffffffffffff16318110611910576040517f08c379a00000000000000000000000000000000000000000000000000000000081526004018080602001828103825260128152602001807f6e6f7420656e6f7567682062616c616e6365000000000000000000000000000081525060200191505060405180910390fd5b8173ffffffffffffffffffffffffffffffffffffffff166108fc829081150290604051600060405180830381858888f19350505050158015611956573d6000803e3d6000fd5b508173ffffffffffffffffffffffffffffffffffffffff167f69ca02dd4edd7bf0a4abb9ed3b7af3f14778db5d61921c7dc7cd545266326de2826040518082815260200191505060405180910390a2505056fe64657374696e6174696f6e2061646472657373206d757374206e6f74207a65726fa165627a7a7230582065cceefa0a04de9a6d88cb1c6f095c1b4f989d096813e73d7749cd538ae7afc70029",
  "source": "pragma solidity >0.4.99 <0.6.0;\r\n\r\nimport \"openzeppelin-solidity/contracts/math/SafeMath.sol\";\r\nimport \"openzeppelin-solidity/contracts/cryptography/ECDSA.sol\";\r\nimport \"openzeppelin-solidity/contracts/token/ERC20/IERC20.sol\";\r\nimport \"./Ownable.sol\";\r\n\r\ncontract Wallet is Ownable {\r\n    using SafeMath for uint;\r\n    using ECDSA for bytes32;\r\n\r\n    mapping(bytes => bool) signatures;\r\n\r\n    event Deposit(address indexed from, uint256 amount);\r\n    event Transfer(address indexed to, uint256 amount);\r\n\r\n    constructor(address _newOwner) public {\r\n        _transferOwnership(_newOwner);\r\n    }\r\n\r\n    function () external payable {\r\n        emit Deposit(msg.sender, msg.value);\r\n    }\r\n\r\n    function setRegistryAddress(address _registryAddress) public onlyOwner(msg.sender) {\r\n        _setRegistryAddress(_registryAddress);\r\n    }\r\n\r\n    function createPreAuthSetRegistryAddress(address _registryAddress, uint256 _nonce) public pure returns(bytes32) {\r\n        bytes32 hash = keccak256(abi.encodePacked(_registryAddress, _nonce));\r\n        return hash;\r\n    }\r\n\r\n    function preAuthSetRegistryAddress(bytes memory _signature, address _registryAddress, uint256 _nonce) public {\r\n        require(_registryAddress != address(0), \"destination address must not zero\");\r\n        require(signatures[_signature] == false, \"transaction already complete\");\r\n        // create hash\r\n        bytes32 hashedTx = createPreAuthSetRegistryAddress(_registryAddress, _nonce);\r\n        hashedTx = hashedTx.toEthSignedMessageHash();\r\n        // check signature\r\n        address from = hashedTx.recover(_signature);\r\n        require(isOwner(from), \"invalid signature\");\r\n        // set registry address\r\n        _setRegistryAddress(_registryAddress);\r\n        signatures[_signature] = true;\r\n    }\r\n\r\n    function transfer(address payable _payee, uint256 _amount) public onlyOwner(msg.sender) {\r\n        _transfer(_payee, _amount);\r\n    }\r\n\r\n    /* not use now becausse if you have ether already, why do pre-authorize in the first place*/\r\n    /*\r\n    function createPreAuthTransfer(address payable _payee, uint256 _amount, uint256 _fee, uint256 _nonce) public pure returns (bytes32) {\r\n        bytes32 hash = keccak256(abi.encodePacked(_payee, _amount, _fee, _nonce));\r\n        return hash;\r\n    }\r\n\r\n    function preAuthTransfer(bytes memory _signature, address payable _payee, uint256 _amount, uint256 _fee, uint256 _nonce) public {\r\n        require(_payee != address(0), \"destination address must not zero\");\r\n        require(signatures[_signature] == false, \"transaction already complete\");\r\n\r\n        //Create a hash of the transaction details\r\n        bytes32 hashedTx = createPreAuthTransfer(_payee, _amount, _fee, _nonce);\r\n        hashedTx = hashedTx.toEthSignedMessageHash();\r\n\r\n        //Obtain the token holder's address and check balance\r\n        address from = hashedTx.recover(_signature);\r\n        require(isOwner(from), \"invalid signature\");\r\n        uint256 total = _amount.add(_fee);\r\n        require(total <= address(this).balance, \"balance not enough\");\r\n\r\n        // Transfer ether\r\n        _transfer(_payee, _amount);\r\n        _transfer(msg.sender, _fee);\r\n\r\n        // Mark transaction as completed\r\n        signatures[_signature] = true;\r\n    }\r\n    */\r\n\r\n    function transferToken(address _tokenAddr, address payable _payee, uint256 _amount) public onlyOwner(msg.sender) {\r\n        IERC20 token = IERC20(_tokenAddr);\r\n        require(token.balanceOf(address(this)) >= _amount, \"not enough token\");\r\n        token.transfer(_payee, _amount);\r\n    }\r\n\r\n    function createPreAuthTransferToken(address _tokenAddr, address payable _payee, uint256 _amount, uint256 _fee, uint256 _nonce) public pure returns (bytes32) {\r\n        bytes32 hash = keccak256(abi.encodePacked(_tokenAddr, _payee, _amount, _fee, _nonce));\r\n        return hash;\r\n    }\r\n\r\n    function preAuthTransferToken(bytes memory _signature, address _tokenAddr, address payable _payee, uint256 _amount, uint256 _fee, uint256 _nonce) public {\r\n        require(_payee != address(0), \"destination address must not zero\");\r\n        require(signatures[_signature] == false, \"transaction already complete\");\r\n\r\n        //Create a hash of the transaction details\r\n        bytes32 hashedTx = createPreAuthTransferToken(_tokenAddr, _payee, _amount, _fee, _nonce);\r\n        hashedTx = hashedTx.toEthSignedMessageHash();\r\n\r\n        //Obtain the token holder's address and check balance\r\n        address from = hashedTx.recover(_signature);\r\n        require(isOwner(from), \"invalid signature\");\r\n        uint256 total = _amount.add(_fee);\r\n        IERC20 token = IERC20(_tokenAddr);\r\n        require(total <= token.balanceOf(address(this)), \"balance not enough\");\r\n\r\n        // Transfer ether\r\n        token.transfer(_payee, _amount);\r\n        token.transfer(msg.sender, _fee);\r\n\r\n        // Mark transaction as completed\r\n        signatures[_signature] = true;\r\n    }\r\n\r\n    function destroy(address payable recipient) public onlyOwner(msg.sender) {\r\n        selfdestruct(recipient);\r\n    }\r\n\r\n    function _transfer(address payable _payee, uint256 _amount) internal {\r\n        require(_amount < address(this).balance, \"not enough balance\");\r\n        _payee.transfer(_amount);\r\n        emit Transfer(_payee, _amount);\r\n    }\r\n}",
  "sourcePath": "D:/node project/feeless-poc/contracts/Wallet.sol",
  "compiler": {
    "name": "solc",
    "version": "0.5.8+commit.23d335f2.Emscripten.clang"
  },
  "schemaVersion": "3.0.10",
  "updatedAt": "2019-08-11T11:21:32.501Z",
  "devdoc": {
    "methods": {}
  },
  "userdoc": {
    "methods": {}
  }
}